:020000040800F2
:1000000090090020790200082F3C0008D132000836
:100010002D3C0008191C0008954200080000000053
:10002000000000000000000000000000893C000803
:10003000351C000800000000313C0008F13C0008BD
:10004000930200089302000893020008930200083C
:10005000930200089302000893020008930200082C
:10006000930200089302000893020008930200081C
:10007000930200089302000893020008930200080C
:1000800093020008930200089302000893020008FC
:1000900093020008930200089302000893020008EC
:1000A00093020008930200089302000893020008DC
:1000B00093020008553D00089302000893020008CF
:1000C00093020008930200089302000893020008BC
:1000D00093020008930200089302000893020008AC
:1000E000930200089302000893020008930200089C
:1000F000930200089302000893020008930200088C
:10010000930200089302000893020008930200087B
:10011000930200089302000893020008930200086B
:10012000930200089302000893020008930200085B
:1001300000F002F800F090F80AA090E8000C824469
:100140008344AAF10107DA4501D100F085F8AFF246
:10015000090EBAE80F0013F0010F18BFFB1A43F0A5
:10016000010318475C5800007C580000103A24BF77
:1001700078C878C1FAD8520724BF30C830C144BF0C
:1001800004680C607047000000230024002500264E
:10019000103A28BF78C1FBD8520728BF30C148BFEA
:1001A0000B6070476E2900F03B82702900F08D854E
:1001B000662905F07480652905F07180672905F0CE
:1001C0006E80612905F06D8003681B0A28BF41F02D
:1001D0008001692900F0E881642900F0E581752932
:1001E00000F0E2816F2900F01A85782900F0598526
:1001F000E92900F0B584E42900F0B284F52900F083
:10020000AF84EF2900F01785F82900F058850368BE
:10021000DB0928BF41F08001632900F0CB877329F7
:1002200000F0D087E32900F0DB87F32900F0E087B6
:10023000002070471FB500F053FD0400002000218E
:1002400004F058FA401C60600020002104F03CFAE1
:10025000E0601FBD10B510BD01F064F81146FFF756
:10026000E9FF04F043F801F08BF803B4FFF7F2FF65
:1002700003BC01F0CFF80000094880470948004757
:10028000FEE7FEE7FEE7FEE7FEE7FEE7FEE7FEE746
:10029000FEE7FEE704480549054A064B70470000A3
:1002A000533D000831010008900300209009002010
:1002B00090050020900500201CB50C46064B7B44A1
:1002C00069460090204600F0D4FB044600206946B1
:1002D00000F0E2FB20461CBDD70700000FB41CB5A0
:1002E000084B06AA7B4469460090059800F0C1FBC4
:1002F00004460020694600F0CFFB20461CBC5DF898
:1003000014FB0000B10700002DE9F05F89460446A8
:100310004FF0000ADFF874B1FB44C0F820A020467B
:10032000E1688847002874D0252806D0D4E9012147
:100330009047206A401C2062F1E700265F46204675
:10034000E16888472028054607DB312D05D278195A
:1003500010F8200C08B10643F1E7B00701D526F0EC
:100360000406C4F81CA00027C4F818A02A2D09D040
:10037000284603F0B4FF38B304EB8708303DC8F8D3
:10038000185019E059F8041B204604EB87029161CC
:10039000E1688847012F054618D1E069002820DA76
:1003A00026F020061DE0D8F8180000EB800005EBD1
:1003B00040003038C8F818002046E16888470546F4
:1003C00003F08DFF0028EED1012F0AD02E2D08D189
:1003D0002046E16888477F1C0546022F46F020062C
:1003E000C4DBA069002803DA404246F00106A061A0
:1003F000F00701D026F010066C2D0BD0682D09D027
:100400004C2D39D06A2D35D0742D35D07A2D33D07E
:1004100016E038E0E1682F4620468847B842054696
:1004200009D16C2F26D04FF48060E1680643204646
:100430008847054604E06C2F1AD04FF480700643BD
:100440000DB3A5F14100192802D8203546F4006605
:100450004A462946204626604E46FFF7A3FE80B155
:1004600001280BD0F61D26F0070000F1080956E719
:100470004020E4E78020D8E70020D6E706F1040911
:100480004DE7284652E7206ABDE8F09FA4550000DA
:100490004FF0000200B5134694469646203922BF1D
:1004A000A0E80C50A0E80C50B1F12001BFF4F7AF68
:1004B000090728BFA0E80C5048BF0CC05DF804EB4A
:1004C000890028BF40F8042B08BF704748BF20F8B8
:1004D000022B11F0804F18BF00F8012B70477047B6
:1004E0007047704770B5044685690068C10601D53C
:1004F000302600E02026C00707D070BDD4E90121D6
:1005000030469047206A401C20626D1EF6D570BDB3
:1005100070B5044685690078C00707D170BDD4E97D
:10052000012120209047206A401C20626D1EF6D5D4
:1005300070BD09684A0501D540B27047C905FCD5B0
:1005400000B2704709684A0501D5C0B27047C905B5
:10055000FCD580B2704770B50C460546012A05D01F
:100560002878800600D5EA69002302E0012305E02F
:100570005B1C934202D2E05C0028F9D1A869E6181E
:10058000C01AA861286A184428622846FFF7AAFF03
:1005900004E0D5E9012114F8010B9047B442F8D3E7
:1005A0002846FFF7B5FF70BD2DE9F041064600244F
:1005B00010687529314616A510D0FFF7BAFF00283C
:1005C00002DA404213A507E031688A0701D512A577
:1005D00002E0490704D511A5012401E0FFF7B2FFAD
:1005E00000210A2206F1240709E0B0FBF2FCB0FB6F
:1005F000F2F302FB1C00303078541846491C0028E6
:10060000F3D123462A463046BDE8F04100F0B1BBA5
:10061000000000002D0000002B0000002000000062
:1006200011680268006A530501D508700AE0D30515
:1006300001D5088006E0130603D5C217C1E9000200
:1006400000E008600120704770472DE9FF4F0C461D
:100650001E464FF0FF378BB0D2E90001DDF8608015
:100660000A908A46C1F30A5505B93D46002108465D
:100670004FF00000BAF1000F00F4400005DA00EB83
:1006800080004FF4400101EA50004FEA9059B9F15F
:10069000010F00DDB9460A9850EA4A000ED044F630
:1006A0001050A5F2FF3545432F14B8F1000F1ED0AE
:1006B0007542291E1EDDC9F100021CE0B8F1010FD0
:1006C0004FF0000001D0302103E0F24305E0215457
:1006D000401CB042FBDB30460022002121540B9924
:1006E000C1F80880C1E900200FB0BDE8F08FBD1B44
:1006F0006D1CDEE74A4600DA694206A800F07CFD80
:1007000006AB93E8070003AB83E8070050460A995D
:1007100000F087FE8DE80700A0F500501F3800901C
:100720000398002D0ADD42F21F014A4608440023C7
:1007300003A90390684601F0F0F809E0A0F5005025
:100740004A461F38002303A90390684601F0FAF8CF
:100750008DE807000004000C03D04FF0FF30410883
:1007600000E01046B8F1000F03D0002200921546B9
:100770001EE0751E05D400F0B7FA303262556D1ECA
:10078000F9D5B3460122084302D000227F1C04E0C1
:100790002078302801D100227F1E002A099784D0BA
:1007A0001DE0112D07DA00F09FFA303262556D1C02
:1007B00050EA0102F5D1084302D00098C8B10EE01A
:1007C0000021681E05E0235C625C63542254401ED5
:1007D000491C8142F7DBAB46A81B401E0990002054
:1007E00004F80B000B98099AC0F80880C0E9002BA8
:1007F0007AE711264FF0000857E72DE9F04F8846B9
:100800000446D21D22F0070191B0D1E90001CDE9E3
:100810000A0103F040FD02460B98C00F01D02D20C5
:1008200007E02068810701D52B2002E0202101EAA2
:10083000C000032A099001D0072A05DB0346414680
:10084000204600F06DFC0BE12078800601D5E069C0
:1008500000E00620B8F1650F814606D0B8F1660FBA
:1008600018D0B8F1670F70D131E00020B9F1110F45
:10087000009001DB112301E009F101030AAA01A99B
:100880000CA8FFF7E2FEDDE90C70002609F1010576
:10089000834647E001204B4600904FF000470AAAEC
:1008A00001A90CA8FFF7D1FEDDE90DB00C995D465A
:1008B000002610B909F101000D18B9EB050003D4A9
:1008C000C0F1FF3609F10105A5EB09002BE0B9F1F4
:1008D000010F01DA4FF001090020B9F1110F00906A
:1008E000484601DD112300E003460AAA01A90CA82D
:1008F000FFF7ABFEDDE90C704D46002683462078FD
:1009000000070AD4AB4500DA5D4601A8012D04DDDD
:10091000411911F8011C302907D04F4502DA17F1AF
:10092000040F04DA012082460FE06D1EEEE7002F6F
:1009300002DCED1B3E4403E0781CA84200DD7D1C78
:10094000B81B00F1010A4FF000472078000703D4DC
:10095000AA4501DB4FF0FF3A0021B7F1004F0DF13E
:1009600043088DF8431024D002202B23002F01DAF6
:100970007F422D230A21021EA0F1010000DC5FB19D
:1009800097FBF1FC97FBF1F201FB1C7C17460CF185
:10099000300C08F801CDEEE7A8F1010003702188C2
:1009A000090501D5452100E06521A0F1010800F805
:1009B000011C09980FA9A1EB0807FF1D00B1012038
:1009C000411901EBEA70A1693844081A401EA06180
:1009D0002078C00602D42046FFF784FD099828B18C
:1009E000D4E901219047206A401C20622078C0068B
:1009F00022D52046FFF776FD1EE0002E04DBB3452E
:100A000002DD01A8805D00E03020D4E9012190479B
:100A1000206A401C2062761CAAF101005FEA000AED
:100A20000AD100F05DF9C0680168405CD4E9012199
:100A30009047206A401C2062281EA5F10105DCDCDD
:100A400007E0D4E9012118F8010B9047206A401C07
:100A50002062381EA7F10107F3DC2046FFF758FD9E
:100A6000032011B041E6000001694A1C02610878C8
:100A7000704700B58FB0CDE90131002105910549DE
:100A80007944CDE9031011466846FFF73DFC0FB0ED
:100A900000BD0000E5FFFFFF0A6802F8010B0A60D5
:100AA000704700002DE9FF5F15468A460446DFF8CF
:100AB000AC80F8440027D8E900103E46CDE900108C
:100AC00010E03AF816106A4602A800F007FC411C34
:100AD00007D02178890603D5E269391891420DD8EB
:100AE0000744761C2078800602D5E069B84205DD0F
:100AF000AE42E6DB3AF816000028E2D1A069C01B3E
:100B0000A0612046FFF7EEFCD8E90010CDE9001007
:100B1000002017E03AF818106A4602A800F0DEFB41
:100B2000B0F1FF3F81460BD000250DF1080B05E029
:100B3000D4E901211BF8050090476D1C4D45F7D302
:100B400008F10100B0428046E4DB206A38442062AC
:100B50002046FFF7DDFCBDE8FF9F00001E4E0000B1
:100B60002DE9F0418046D21D22F007020025D2E98E
:100B70000002F52915A614D0011E72F1000106DA53
:100B80000023D0EB030063EB020211A608E0D8F8C3
:100B900000108B0701D50FA602E0490701D50EA66C
:100BA00001251146002408F1240704E000F09CF818
:100BB00030323A55641C50EA0102F7D12B463246D6
:100BC00021464046BDE8F04100F0D3B800000000E7
:100BD0002D0000002B0000002000000030B4002198
:100BE00000F1240408E002F00705D208303542EA9B
:100BF0004372DB086554491C52EA0305F3D10468CB
:100C0000002310A2250707D5A40600D421B1C4698A
:100C100001230DA2641EC46130BC00F0AAB810B557
:100C2000044621461068FFF78DFC02462046BDE8C9
:100C300010400023D2E7D21D22F00701D1E90023A2
:100C4000CCE700000000000030000000F0B40D46CA
:100C50000188090502D5214C7C4402E01F4C7C44EC
:100C60000E34002100F1240608E002F00F071209FB
:100C7000E75D42EA03721B097754491C52EA0307F5
:100C8000F3D102780023120704D5702D06D009B1E4
:100C9000022311342246F0BC00F06BB8012310345B
:100CA000F8E770B504460D4621461068FFF74AFC88
:100CB000024629462046BDE870400023C6E7D21D03
:100CC00022F00703D3E90023C0E70368126843F06A
:100CD000200303600823C3610023B7E7804C0000B2
:100CE000004870475003002030B5B0F10A024FEAC7
:100CF000900E71F100034EEA817EB0EB0E0061EBC5
:100D000091014FEA101E4EEA017E10EB0E0041EBFE
:100D100011114FEA102E4EEA016E10EB0E0041EB5E
:100D200011214FEA104E4EEA014E10EB0E0041EB3E
:100D30001141401841F100014FEAD00040EA4170F2
:100D40004FEAD10110EB80054FEA810444EA907428
:100D500044EB01046D1944EB0404521BA3414FF012
:100D6000000348BF0A3200D530BD401C41F10001EC
:100D700030BD2DE9F0470D4699469246044600F1F4
:100D800024080168880604D5E06921F0100121607B
:100D900000E00120A84201DD471B00E00027A16917
:100DA0007A1902EB0900081AA0612078C00602D463
:100DB0002046FFF797FB002608E0D4E901211AF846
:100DC00006009047206A401C761C20624E45F4DBEA
:100DD0002078C0060AD52046FFF784FB06E0D4E958
:100DE000012130209047206A401C2062381EA7F164
:100DF0000107F4DC07E0D4E9012118F80500904769
:100E0000206A401C2062281EA5F10105F3DC204663
:100E1000FFF77EFB2078000602D50220BDE8F087B0
:100E20000120FBE72DE9F04F04460D46D21D22F0CC
:100E3000070089B0D0E900974846394603F02BFAFD
:100E40000246F80F01D02D2307E02068810701D565
:100E50002B2302E0202101EAC0038DF820300BB1E2
:100E6000012000E00020032A824601D0072A04DB8B
:100E70002946204600F054F93FE12078800601D44D
:100E80000D2500E0E569C7F30A560D2D49DA00216A
:100E90004FEA175B08464FF00000002F00F44000B7
:100EA00007DA00EB80004FF4400100EBD07001EA5C
:100EB00060008115012901DD4FF0FF3100224FEA6A
:100EC000850CBCF1180F06D31346ACF118004FF097
:100ED0008052C24003E04FF4801323FA0CF30CF16C
:100EE0000C0CBCF1200F04D3ACF1200C09FA0CF06F
:100EF00001E007FA0CF000294FF0004801DD18B9B5
:100F00000FE00ED140450CD319EB02095F4121B926
:100F1000404502D19F4329EA0209BBEB175F00D08D
:100F2000761C2088000502D57B48784402E07A4888
:100F30007844193808AA302302F80A30037C0AF1F1
:100F40000101002E0AF1020A53546A4602DC4FF0F6
:100F5000300101E04FF031014FF001088DF8001031
:100F600002D0A6F2FF3603E059EA470100D06B4EEB
:100F7000002D02DC2178090704D54FF002082E214C
:100F80008DF80110C44600210BE0C7F303433F0175
:100F9000C35C491C6D1E02F80830052908F10108E0
:100FA00001DA002DF1DC00210CE000EB1973491C83
:100FB0001B786D1E082902F808304FEA091908F15C
:100FC000010801DA002DF0DC21688B0602D516E05D
:100FD000A8F10108E04505DD02EB080313F8013C28
:100FE000302BF5D0B8F1000F09DD02EB080313F840
:100FF000013C2E2B03D1090701D4A8F10108002DD3
:1010000005DD3E2102F808106D1E08F10108407C44
:10101000002E02F8080008F1010804DA2D207642BB
:1010200002F8080002E02B2002F808000A214FF421
:101030007A70864208F101080BDB96FBF0F330333F
:1010400002F8083096FBF0F308F1010800FB136684
:1010500001E0642E0CDB642096FBF0F3303302F8E1
:10106000083096FBF0F308F1010800FB136601E07D
:101070000A2E06DB96FBF1F0303002F8080008F18A
:10108000010896FBF1F001FB1060303002F8080017
:10109000A16908F1010808EB050202EB0A00081A31
:1010A000A0612078C00602D42046FFF71BFA216A0F
:1010B00008AE01EB0A00206204E0D4E9012116F831
:1010C000010B9047BAF1010AF7D22078C00602D589
:1010D0002046FFF707FA6E4609E016F8010B3E2896
:1010E0000FD0D4E901219047206A401C2062B8F15A
:1010F0000108F2D22046FFF70BFA09B00320BDE841
:10110000F08F206A2844206203E0D4E901213020D6
:1011100090476D1EEBD3F8E7E949000002FCFFFFA2
:101120002DE9F0411F46044603260168072A01F411
:10113000006004DB08B116A505E016A503E008B1C0
:1011400015A500E015A521F010002060A069C01EC3
:10115000A0610FB1401EA0612046FFF7C3F94FB157
:10116000D4E9012138469047206A401C2062C01C07
:10117000206206E0206AFAE7D4E9012115F8010BA4
:101180009047761EF8D22046FFF7C2F9BDE8F081FD
:101190004E414E006E616E00494E4600696E66001B
:1011A00010B5436913B1AFF3008001E0FFF7D3F945
:1011B000012010BD127800F124010A7000224A704B
:1011C0000122EDE711684FF0FF32E9E710B54369FE
:1011D00013B1AFF3008001E0FFF764FC012010BD04
:1011E000128800F1240182840022C2840122EDE7EA
:1011F00011684FF0FF32E9E72DE9F04781461646C6
:101200008AB0354878440DC88DE80D0032487844DE
:10121000801C03AC0DC884E80D0041F69B300844E7
:10122000372190FBF1F290FBF1F5A5F1800501FB70
:1012300012041B3C02D56442012000E00020DFF8CC
:1012400098A080460027FA44AAF1BE0A0EE0E00703
:101250000AD03246684607EB470101230AEB8101B9
:1012600000F070FB8DE8070064107F1C002CEED1AD
:10127000194F7F44AE3F19E0E80715D007EB041083
:101280000DF1180A90E80E008AE80E00C068F042DE
:1012900001D1981908903246012306A903A800F04D
:1012A00051FB03AB83E807006D10641C002DE3D1F4
:1012B0004FF0010332466946B8F1000F03A802D08F
:1012C00000F02BFB01E000F03DFBC9E90001C9F88B
:1012D00008200AB0BDE8F087A047000070B51646A8
:1012E0000C46054600F044F8036893F80101012814
:1012F00006D0FF2C0FD8185D68B101202C7070BD8E
:10130000D3F807013246214603F207130344284667
:10131000BDE8704018474FF0FF3070BD004870477F
:10132000300300207546FFF7F9FFAE460500694619
:10133000534620F00700854618B020B5FEF7AAFFF7
:10134000BDE820404FF000064FF000074FF00008C6
:101350004FF0000B21F00701AC46ACE8C009ACE847
:10136000C009ACE8C009ACE8C0098D467047000070
:1013700010B5FFF7B5FC001D10BD00BF79330000AC
:1013800010B50446AFF300802046BDE81040FEF7DC
:101390006CBF00004FF0013C50F8042B51F8043BA7
:1013A0009A4221D1A2EB0C03934313EACC1317D139
:1013B00050F8042B51F8043B9A4215D1A2EB0C03D0
:1013C000934313EACC130BD150F8042B51F8043B90
:1013D0009A4209D1A2EB0C03934313EACC13DBD05E
:1013E0004FF00000704700BFD01A01BAB1FA81F186
:1013F00001F0180122FA01F0CB40C1F12001DBB26B
:10140000C0B2C01A2CFA01F3D11A914311EAC311E8
:10141000E6D1704701491820ABBEFEE72600020066
:1014200070475FEA400C08BF91F0000F4FEA8C2331
:101430004FEAC12243EA51514FEA1C5018BF00F550
:10144000F0404FEA300018BF41F000415FEA6C5CA9
:1014500000F02980BCF1FF3F08BF40F0804070479A
:10146000130C06BF12044FF0100C4FF0000C130EBB
:1014700004BF12020CF1080C130F04BF12010CF18F
:10148000040C930F04BF92000CF1020CD30F04BFA5
:1014900052000CF1010C11464FF00002A0F11F00A8
:1014A000A0EB0C00704711F0004F08BF704731F0FF
:1014B00000413FF4D5AF0B0C06BF09044FF0100CF0
:1014C0004FF0000C0B0E04BF09020CF1080C0B0FBF
:1014D00004BF09010CF1040C8B0F04BF89000CF14F
:1014E000020CCB0F04BF49000CF1010CCCF120031E
:1014F000A0EB0C0022FA03F302FA0CF241EA03011A
:1015000000F10100704720F07F4C80EA030023F0D7
:101510007F47ACEB070303F57C5300F0004003F179
:10152000FF032DE980494FEA154B09B44FEA1443F4
:1015300025EA0B4E24EA03480FF2042606EB132794
:1015400049083E785FEA320203FB0667C7F50007E9
:1015500007FB06F64FEA54374FEAD64606F1020675
:1015600007FB066CCCF1005C4FEA1C472CEA074CE9
:1015700007FB06F40CFB06F504EB15464FEA96163E
:1015800034BF00204FF000404FEAD13706FB07FC84
:101590004FEA1C4C0CFB0BF7D21B03FB0CF761EB67
:1015A00007010CFB0EF7B0EB074072EB17420CFB88
:1015B00008F734BFA2EB0742B2EB074261EB1741D9
:1015C0004FEA0C444FEA910706FB07FC4FEA1C4C1C
:1015D0000CFB0BF7B0EBC74072EB573203FB0CF779
:1015E00034BFA2EBC742B2EBC74261EB57310CFBF1
:1015F0000EF7B0EBC70072EB57720CFB08F734BF65
:10160000A2EBC702B2EBC70261EB5771039F4FEA2F
:10161000816141EA921104EBCC044FEAD1374FEAE1
:10162000826206FB07FC42EA90124FEA80604FEAB2
:101630001C4C0CFB0BF7D21B03FB0CF761EB0701F7
:101640000CFB0EF7B0EB074072EB17420CFB08F7F0
:1016500034BFA2EB0742B2EB074261EB17414FEAFE
:101660008C554FEA910704EB9C2406FB07FC4FEADC
:101670001C4C0CFB0BF7B0EBC74072EB573203FB73
:101680000CF734BFA2EBC742B2EBC74261EB573154
:101690000CFB0EF7B0EBC70072EB57720CFB08F7B0
:1016A00034BFA2EBC702B2EBC70261EB577115EB77
:1016B0004C254FEA816141EA92114FEA82624FEA7A
:1016C000D13742EA901206FB07FC44F100044FEACE
:1016D00080604FEA1C4C0CFB0BF7D21B03FB0CF792
:1016E00061EB07010CFB0EF7B0EB074072EB174202
:1016F0000CFB08F734BFA2EB0742B2EB074261EBE9
:10170000174115EB1C154FEA813141EA92414FEA2E
:10171000823242EA90424FEA80304FEA0C7644F13E
:10172000000448EA03434EEA0B484FF0000EB2EBC8
:10173000080C71EB030724BF624639464EEB0E0ED0
:101740004FF0000B0018524149414BEB0B0BB2EB31
:10175000080C71EB03077BF1000B24BF624639468E
:101760004EEB0E0E4FF0000B0018524149414BEB6F
:101770000B0BB2EB080C71EB03077BF1000B24BFE2
:10178000624639464EEB0E0E51EA020718BF46F08C
:10179000010616EB0E7655F1000254F1000103D557
:1017A000BDE88901BDE80088BDE88901BDE80048C1
:1017B000B619524141EB0101A3F10103704780804A
:1017C0007F7E7D7C7B7A797877767675747372719B
:1017D00071706F6E6E6D6C6C6B6A6A696868676653
:1017E00066656464636362616160605F5F5E5E5DE5
:1017F0005D5C5C5B5B5A5A59595858575756565559
:1018000055555454535352525251515050504F4FBA
:101810004F4E4E4D4D4D4C4C4C4B4B4B4A4A4A490A
:10182000494948484847474747464646454545444D
:101830004444444343434342424242414141002BDA
:101840009C4630D477002BD01CB54FEA370703B441
:101850004FF010004FF01001BAF1000F06D0BCF1AC
:10186000000FDCBF40F0080040F008014FF000001E
:101870000FBCBDE810400BF1010BBBF1010F08BF1D
:101880005FEA170722BF12F1010211F101014FF0C7
:10189000004143F1000300F0004043EA00007047BC
:1018A000F9D35708D0E746EA064613F1400F4FEA4E
:1018B00016461FDD13F1200FDFBF16430A46002135
:1018C00020335B42BED0C3F1200746EA064602FA47
:1018D00007F74FEA164646EA0706C3F1200722FA41
:1018E00003F201FA07F721FA03F14FF0000342EA8D
:1018F0000702A7E746EA020646EA06464FEA164608
:1019000046EA0106BCBF46EA0646360C4FF0000325
:101910004FF000024FF0000194E72DE9804C9A4609
:10192000934670B491E8380007C831EA400C48BFCC
:1019300034EA430C03D5FFF7E6FDFFF780FFF0BC68
:10194000BDE8008C2DE9804C9A46934670B491E82E
:10195000380007C810F0804F08BF13F0804F03D144
:1019600000F005F8FFF76BFFF0BCBDE8008C20F03D
:101970007F4780EA030023F07F4C07EB0C03A3F5BD
:101980007C5300F00040A3F1FE0392F0000F00F042
:10199000B38095F0000F00F077802DE901494FEA00
:1019A00011404FEA144621EA004800FB06FC24EAF5
:1019B000064708FB06F607FB08F800FB07F718EBDD
:1019C00006484CEB164C4FEA124B18EB07484FEA0F
:1019D00015464CEB174022EA0B4E0BFB06FC25EAA2
:1019E00006470EFB06F607FB0EFE0BFB07F71EEB8A
:1019F000064E4CEB164C4FF000061EEB074E4CEB20
:101A0000174B18EB0B0840F1000018EB0E0B58EBCE
:101A1000000840F100008F1A4FF000013CBFC9439D
:101A2000661B14BFB5EB040C00213CBFC943F61B79
:101A30004FEA17444EEA8E0E27EA04454FEA1C4748
:101A400004FB07622CEA074C05FB07F70CFB05F6C5
:101A500004FB0CFC16EB074642EB174216EB0C4658
:101A600042EB1C421BEB060658EB0202414146EAE0
:101A70009E0601D5BDE80189B619524141EB01012D
:101A8000A3F10103BDE801894FEA14454FEA11476C
:101A900024EA054621EA074C05FB07F406FB07F795
:101AA0000CFB06F105FB0CFC11EB074144EB174462
:101AB0004FEA124711EB0C4144EB1C4422EA074C5D
:101AC00005FB07F206FB07F70CFB06F605FB0CFC13
:101AD00016EB074642EB174216EB0C4642EB1C4551
:101AE0006A1854F1000148BF7047B619524141EBE2
:101AF0000101A3F10103704795F0000F37D04FEAC1
:101B000011424FEA144721EA024624EA074C02FB3D
:101B100007F106FB07F70CFB06F402FB0CFC14EBC9
:101B2000074441EB17414FEA154714EB0C4441EBD6
:101B30001C4125EA074C02FB07F506FB07F70CFBE7
:101B400006F602FB0CFC16EB074645EB174516EBB9
:101B50000C4645EB1C42121951F1000148BF704779
:101B6000B619524141EB0101A3F1010370474FEA5D
:101B700014454FEA114724EA054621EA074C05FBC4
:101B800007F106FB07F70CFB06F24FF0000605FB1A
:101B90000CFC12EB074241EB174112EB0C4251EBEC
:101BA0001C4148BF7047921841EB0101A3F10103AA
:101BB0007047000010B5164C00224FF4807120468B
:101BC00000F03FFA01225102204600F03AFA114C8F
:101BD00001220421204600F034FA00220821204688
:101BE00000F02FFA01221021204600F02AFA0022EC
:101BF0002021204600F025FA00224021204600F056
:101C000020FA20460122BDE81040802100F019BAD8
:101C10000010014000080140FEE7000004490A6886
:101C200050630A6890630A68D06309680864704763
:101C3000A0020020704772B6FEE7000030B5B3F591
:101C4000804F05D06FF0704140F82210002030BD69
:101C50008C690B688D6823434C688989240144EAA8
:101C60000524234343EA014150F82230014C23402C
:101C70001943E9E70000F0CF30B50A6850F8223088
:101C800023F0010340F822308C68204B4A68082C6E
:101C90001ED02243D1E903452C4322434C69224301
:101CA0008C692243CC6922430C6A22434C6A22434A
:101CB0008C6A2243CC6A22430C6B0968224350F899
:101CC00021401C4052EA040240F82120002030BD8F
:101CD000D1E9034542F008022C4322434C692243D8
:101CE0008C692243CC6922430C6A22434C6A22430A
:101CF0008C6A2243CC6A22430C6B0968224350F859
:101D000021401C40224342F04002DDE78100F7FF02
:101D100030B5D1E9003443EA04138C688D8924027C
:101D200044EA054423430C8A094D00EB820005EB8D
:101D3000045423430C7D6D0105EB0464896923433E
:101D40000B43416801F040410B434360002030BD2C
:101D50000000F0FF10B5164C01221102204600F0E1
:101D600070F900226115204600F06BF9114C002239
:101D70000421204600F065F901220821204600F0E8
:101D800060F900221021204600F05BF90122202199
:101D9000204600F056F901224021204600F051F97A
:101DA00020460022BDE81040802100F04AB9000022
:101DB000001001400008014010B5114C00202178AE
:101DC0000A061CD50F4A01F03F01C1EB0141128800
:101DD00011440D4A127882B9084602F02BFE0B4AD4
:101DE0000B4B02F03BFE00220A4B02F037FE0022B2
:101DF000094B02F0C7FC02F093FC0021217010BDDA
:101E000024000020260000200000002052B81E857B
:101E1000EB6975400000594080843E4170B504462E
:101E200000F014F90546601C02D004480078044410
:101E300000F00CF9401BA042FAD370BD280000202E
:101E40002DE9F84FDFF8C8910024A9F1040B2346CF
:101E50000F2709F1040AABF1040ED1E00125A540DA
:101E600006EA0502AA4276D1DFF8A8C14E68A6EBC1
:101E70000C0866452BD00DDC032E34D005DC36B3C0
:101E8000012E19D0022E2FD11BE0112E16D0122EAA
:101E90002AD119E0B8F5881F19D006DCB8F5803FC3
:101EA00015D0B8F5801F1FD111E0B8F5001F0ED076
:101EB000B8F5041F18D10AE0CB6815E0CB681B1DEC
:101EC00012E0CB6808330FE0CB680C330CE08B6872
:101ED0002BB1012B4FF0080303D0456104E004232C
:101EE00002E0056100E00023FF2A01D8064601E078
:101EF00000F104064FEA840501D9A5F12005D6F8C2
:101F0000008007FA05FC28EA0C0803FA05F548EA00
:101F10000508C6F800804D68ED0070D53E4DAE69ED
:101F200046F00106AE61AD6924F0030605F0010537
:101F300000953A4D06EB050CDCF80850A607360F65
:101F400007FA06F825EA0805DFF8D480404503D1F2
:101F50004FF0000825E052E0DFF8C880404502D18C
:101F60004FF001081DE0DFF8C080404502D14FF07E
:101F7000020816E0DFF8B480404502D14FF00308B4
:101F80000FE0DFF8AC80404502D14FF0040808E0D4
:101F9000DFF8A080404502D14FF0050801E04FF086
:101FA000060808FA06F848EA0508CCF808804D68E3
:101FB000D9F80060ED024D4601D5164300E0964386
:101FC0002E604D68DAF80060AD02554601D5164323
:101FD00000E096432E604D68DBF80060AD035D467F
:101FE00001D5164300E096432E604D68DEF8006090
:101FF000ED03754601D5164300E096432E60641C40
:102000000A681646E2407FF429AFBDE8F88F000069
:1020100008040140000011100010024000000140BF
:1020200000080140000C0140001001400014014074
:1020300000180140001C01408068084000D00120C9
:1020400070470AB1016170470904FBE701488068E5
:10205000704700002800002002488168027811447F
:102060008160704728000020074810B5016841F0E2
:1020700010010160032000F075F80F2000F006F851
:1020800000F024F8002010BD0020024070B50D4D76
:1020900004464FF47A712878B1FBF0F00A490968D8
:1020A000B1FBF0F000F008FB48B9102C07D2002279
:1020B0002146501E00F036F800206C6070BD0120F3
:1020C00070BD000028000020340000200C4808B536
:1020D000816941F001018161816901F00101009193
:1020E000C16941F08051C161C06900F08050009029
:1020F0000448416821F0E06141F00071416008BD91
:102100000010024000000140002809DB00F01F021F
:10211000012191404009800000F1E020C0F8001149
:1021200070470000F0B40E4B1B680C46C3F302234B
:10213000C3F10705042D00D90425191D072901D273
:10214000002300E0DB1E012606FA05F1491E2140AE
:1021500099409E40761E16403143F0BC02F0AFB865
:102160000CED00E0064900F0070208684FF6FF0397
:10217000184040EA0220034A1043086070470000FC
:102180000CED00E00000FA052DE9F0470F460500D0
:1021900061D0434E306800F00700B84209D2306881
:1021A00020F0070038433060306800F00700B84284
:1021B00051D128683B4C810712D5400703D5606890
:1021C00040F4E06060602878000703D5606840F460
:1021D000605060606068A96820F0F00008436060AB
:1021E0002878C00728D06868012810D02168022804
:1021F00010D0890700292EDA616821F0030101431C
:102200006160FFF723FF804641F288390DE02168C5
:102210008903EFE78901EDE7FFF718FFA0EB08015D
:10222000494502D90320BDE8F0876068696800F07D
:102230000C00B0EB810FEFD1306800F00700B8421E
:102240000BD9306820F0070038433060306800F068
:102250000700B84201D00120E5E72878400705D5FE
:102260006068E96820F4E06008436060287800074F
:1022700006D56068296920F4605040EAC1006060BA
:1022800000F038F86168084AC1F30311515CC84096
:102290000649086006480068FFF7F8FE0020C2E71C
:1022A0000020024000100240A8580008340000201E
:1022B0002C0000200448054900684968044AC1F31D
:1022C0000221515CC84070473400002000100240D9
:1022D000B85800080448054900684968044AC1F331
:1022E000C221515CC84070473400002000100240F9
:1022F000B85800080E4A51680E4801F00C03042B30
:1023000011D0082B0FD10C48C1F38343C903C05C23
:102310000AD55168084AC1F34041921E515C054AF2
:102320005043B0FBF1F07047044948437047000048
:102330000010024000127A009858000800093D0081
:102340002DE9F84F040070D02078C04DC00749D067
:102350006868C0F38100012807D06868C0F3810075
:10236000022809D16868C00306D52868800339D5DA
:1023700060680028E7D035E06068B0F5803F0BD09A
:1023800010B1B0F5A02F11D0286820F4803028605B
:10239000286820F4802002E0286840F4803028601B
:1023A000606890B1FFF752FE06460AE0286840F4E4
:1023B00080202860F0E700BFFFF748FE801B6428FC
:1023C00073D828688003F7D50CE0FFF73FFE064678
:1023D00005E000BFFFF73AFE801B6428F0D82868AC
:1023E0008003F7D420789A4E80074FF001094FF010
:1023F000000839D5686810F00C0F07D06868C0F382
:102400008100022809D16868C00306D428688007C3
:1024100014D52069012808D110E02069B0B1C6F8B0
:102420000090FFF713FE074605E00AE1FFF70EFEF6
:10243000C01B0228C4D828688007F7D528686169BE
:1024400020F0F80040EAC10028600DE0C6F80080E6
:10245000FFF7FCFD074604E0FFF7F8FDC01B02286C
:1024600023D828688007F7D4207800072CD579482E
:10247000A169D9B1C0F80090FFF7E8FD074604E074
:10248000FFF7E4FDC01B02280FD8686A8007F7D564
:1024900071484FF4FA510068B0FBF1F0009000BFB2
:1024A0000098411E0091FAD20EE080E0C0F8008052
:1024B000FFF7CCFD074604E0FFF7C8FDC01B02286C
:1024C00075D8686A8007F7D42078400760D5E86936
:1024D0000027C00008D4E86940F08050E861E8694E
:1024E000012700F0805000905C480168C90513D4B2
:1024F0000168834641F480710160FFF7A7FD8246C1
:1025000006E000BFFFF7A2FDA0EB0A0064284ED84A
:10251000DBF80000C005F5D5E06801280AD008B155
:10252000052813D0286A20F001002862286A20F0CC
:10253000040002E0286A40F001002862E06841F2ED
:10254000883B98B1FFF782FD82460BE0286A40F095
:1025500004002862EEE700BFFFF778FDA0EB0A0158
:1025600059455AD8286A8007F6D50CE0FFF76EFD6A
:10257000824605E0FFF76AFDA0EB0A0159454CD8F9
:10258000286A8007F6D41FB1E86920F08050E8611E
:10259000E06988B36968C1F38101022944D0022847
:1025A000C6F8608004D0FFF751FD044638E034E0FF
:1025B000FFF74CFD074604E0FFF748FDC01B02286B
:1025C0002BD828688001F7D4206AB0F5803F05D168
:1025D0006868A16820F4003008436860D4E9080105
:1025E0000843696821F4741108436860C6F8609074
:1025F000FFF72CFD044606E025E000BFFFF726FDAF
:10260000001B022809D828688001F7D51BE000BF0D
:10261000FFF71CFD001B022802D90320BDE8F88F3C
:1026200028688001F4D40EE00128F7D06868226A97
:1026300000F48031914204D1616A00F47010884244
:1026400001D00120EAE70020E8E700000010024086
:1026500000004242800442423400002000700040EA
:1026600070B515460E46040003D094F83D0010B135
:1026700007E0012070BD002084F83C00204600F0F7
:102680001AF804F108012068FFF7F6FA3146A2684B
:102690002068FFF73DFBD4E901022946236BFFF7D1
:1026A000CDFAA168206850F8212042F0010240F8DC
:1026B0002120002070BD704710B5401EB0F1807F12
:1026C00001D3012010BD4FF0E02460610F2160179D
:1026D00001F0F5FD0020A06107202061002010BD61
:1026E0007047704710B590F83C20012A22D0012293
:1026F00080F83C20CA688C6822F4407222434C68FF
:1027000022F4806222430C6822F4006222430C69A6
:1027100022F4805222434C6922F400522243C969B8
:10272000002322F480420A4301684A6480F83C3066
:10273000002010BD022010BD70B590F83C20012A89
:102740002CD0012480F83C40022280F83D20036810
:102750005A689D6822F070060A6832435A60104B2E
:1027600002689A420ED00F4B9A420BD0B2F1804FC2
:1027700008D00D4B9A4205D00C4B9A4202D00C4B1C
:102780009A4204D1496825F080031943916080F88A
:102790003D40002180F83C10084670BD022070BD0D
:1027A000002C0140003401400004004000080040BB
:1027B000000C004010B5040003D094F83D0010B1A7
:1027C00007E0012010BD002084F83C00204600F006
:1027D0001FF8022084F83D00211D206801F0C0FA96
:1027E000012084F8460084F83E0084F83F0084F815
:1027F000400084F8410084F8420084F8430084F8E3
:10280000440084F8450084F83D00002010BD00001D
:1028100008B500680649884208D10648C16941F0F8
:102820000401C161C06900F00400009008BD00000F
:10283000000800400010024090F83D10012901D02E
:1028400001207047022180F83D1000680E4988423F
:102850000ED00E4988420BD0B0F1804F08D00C4901
:10286000884205D00B49884202D00B49884204D1E6
:10287000816801F00701062903D0016841F00101D8
:102880000160002070470000002C0140003401402E
:102890000004004000080040000C004070B50446F1
:1028A00090F83C000025012817D0012684F83C60F0
:1028B000022084F83D002068826822F0770222F42A
:1028C0007F4282600868502838D00DDC20284FD025
:1028D00005DC90B3102811D14AE0022070BD3028E9
:1028E00046D040280AD13BE060282FD070280DD078
:1028F000B0F5805F03D0B0F5005F12D0012584F8F9
:102900003D60002084F83C00284670BDCB68D1E9CA
:102910000121206801F077FA2068816841F0770191
:1029200009E0CB68D1E90121206801F06CFA206848
:10293000816841F480418160E1E719E0CA68496833
:10294000206801F035FB5021206806E0CA6849681C
:10295000206801F075FB6021206801F05EFACEE787
:10296000CA684968206801F023FB40212068F4E729
:10297000226801461046F0E770B51E4C207801062B
:1029800012D41D4D410610D540F080002070042166
:10299000284600F0B7FB60802868016A21F0A0019A
:1029A00001622868016A016270BD002161804020D7
:1029B00020702868026A41F211131A4207D1026A94
:1029C0009B101A4203D1026822F0010202602868BB
:1029D00041622868016A21F0A00101622868016A49
:1029E00041F0200101622868016841F001010160A5
:1029F00070BD000024000020580200202DE9F041A5
:102A0000054690F83C0000260C46012810D0012015
:102A100085F83C0072B1042A1CD0082A2CD00C2A5C
:102A200050D00126002085F83C003046BDE8F081FA
:102A30000220FBE7D4E90012E368286801F0CAFA33
:102A40002868816921F00C01816128688169A26888
:102A500011430FE0D4E90012E368286801F002FB9B
:102A60002868816921F44061816128688169A268D0
:102A700041EA02218161D5E72868D4E9002C277B4F
:102A8000036A016A21F480710162C16923F4007351
:102A900021F0030141EA0C0121F0F00C39074FF459
:102AA00000774CEA116107EA02221A43C16102620F
:102AB0002868C16921F00C01C1612868C169A26858
:102AC00011432BE02868D4E90021E768036AD0F8B5
:102AD00020C02CF4805CC0F820C0D0F81CC023F4C7
:102AE00000532CF4407C4CEA012121F4704C4FF649
:102AF000FF7101EA07314FF4005741EA0C0107EA80
:102B000002321A43C16102622868C16921F440613E
:102B1000C1612868C169A26841EA0221C16181E7F7
:102B200010B5040003D094F83D0010B107E0012077
:102B300010BD002084F83C00204600F01FF8022061
:102B400084F83D00211D206801F00AF9012084F875
:102B5000460084F83E0084F83F0084F8400084F882
:102B6000410084F8420084F8430084F8440084F86B
:102B7000450084F83D00002010BD000000B585B080
:102B80000021009101910291039100681649884249
:102B900027D11648C16941F00201C161C16901F044
:102BA00002010491816941F00801816180696946EF
:102BB00000F008000490202000900D48FFF740F935
:102BC0000C48416821F4406141F0E06141F400614A
:102BD0004160002211461D20FFF7A4FA1D20FFF7D7
:102BE00093FA05B000BD0000000400400010024050
:102BF000000C01400000014030B50446002551B1F1
:102C000004290DD0082910D094F8412094F84500EB
:102C1000012A11D10EE094F83E2094F84200F7E723
:102C200094F83F2094F84300F2E794F8402094F899
:102C30004400EDE7012801D0012030BD022059B148
:102C4000042912D0082919D084F8410084F84500DD
:102C50000C293ED001253AE084F83E0084F8420079
:102C60002068C26842F0020210E084F83F0084F855
:102C700043002068C26842F0040207E084F8400084
:102C800084F844002068C26842F00802C260012251
:102C9000206801F0ABF81149206888420ED0104935
:102CA00088420BD0B0F1804F08D00E49884205D041
:102CB0000D49884202D00D49884204D1816801F053
:102CC0000701062903D0016841F00101016028468F
:102CD00030BD2068C26842F01002D7E7002C0140E6
:102CE000003401400004004000080040000C004097
:102CF00070B50446006801694FF00005C9438907B3
:102D000015D4C168C943890711D4E91E01610120A6
:102D10002077206880698007204602D0FFF72CFECC
:102D200004E000F0D5F8204600F07AF92577206815
:102D30000169C943490717D4C168C943490713D476
:102D40006FF004010161022020772068806910F48F
:102D5000407F204602D0FFF70FFE04E000F0B8F8F5
:102D6000204600F05DF9257720680169C94309070D
:102D700016D4C168C943090712D46FF00801016174
:102D8000042020772068C0698007204602D0FFF722
:102D9000F3FD04E000F09CF8204600F041F92577AF
:102DA00020680169C943C90617D4C168C943C90667
:102DB00013D46FF010010161082020772068C069EA
:102DC00010F4407F204602D0FFF7D6FD04E000F06B
:102DD0007FF8204600F024F9257720680169C9436F
:102DE000C90708D1C168C943C90704D1891E016157
:102DF000204600F071F920680169C943090609D429
:102E0000C168C943090605D46FF0800101612046FD
:102E1000FFF766FC20680169C943490609D4C16807
:102E2000C943490605D46FF040010161204600F016
:102E30007EF920680169C94389060BD4C168C9437A
:102E4000890607D46FF0200101612046BDE870407B
:102E5000FFF747BC70BD000000B585B000210091B0
:102E6000019102910391154B0268154802219A4283
:102E70000ED1826942F0040282618069039100F000
:102E800004000490C801CDE9000169460D4811E035
:102E90000D4B9A4210D1826942F00802826180692A
:102EA000039100F0080004904FF47070CDE9000128
:102EB00069460648FEF7C4FF05B000BD002C01407E
:102EC000001002400008014000080040000C0140D2
:102ED000704770B5044690F83C0000260D46012866
:102EE0000FD0012084F83C006AB1042A1DD0082AC2
:102EF0002FD00C2A3FD00126002084F83C00304619
:102F000070BD022070BD206800F090FF20688169CC
:102F100041F0080181612068816921F0040181612B
:102F2000206881692A69114311E0206800F0AEFF32
:102F30002068816941F4006181612068816921F420
:102F400080618161206881692A6941EA0221816189
:102F5000D2E7206800F0D0FF2068C16941F0080185
:102F6000C1612068C16921F00401C1612068C169A3
:102F70002A69114311E0206800F0F2FF2068C1695E
:102F800041F40061C1612068C16921F48061C161BF
:102F90002068C1692A6941EA0221C161ACE710B524
:102FA000040003D094F83D0010B107E0012010BDEB
:102FB000002084F83C00204600F01EF8022084F82F
:102FC0003D00211D206800F0CBFE012084F8460062
:102FD00084F83E0084F83F0084F8400084F8410003
:102FE00084F8420084F8430084F8440084F84500E3
:102FF00084F83D00002010BD08B5006806498842ED
:1030000008D10648816941F400618161806900F45A
:103010000060009008BD0000002C0140001002403C
:103020007047000010B50446022249B104290ED0B1
:10303000082913D094F84100012816D0012010BDB2
:1030400094F83E000128F9D184F83E200FE094F86E
:103050003F000128F2D184F83F2008E094F84000B6
:103060000128EBD184F8402001E084F841200122BE
:10307000206800F0BBFE13492068134A884201D043
:10308000904203D1436C43F4004343642068884278
:103090000DD090420BD0B0F1804F08D00B49884240
:1030A00005D00B49884202D00A49884204D1816880
:1030B00001F00701062903D0016841F00101016018
:1030C000002010BD002C01400034014000040040ED
:1030D00000080040000C004009490878020606D4A8
:1030E000420604D5C243920602D0401C08707047C5
:1030F00040F0800008704FF6FF7048807047000075
:10310000240000200246002041B1042909D00829EA
:103110000AD00C2901D11068006C70471068406B10
:1031200070471068806B70471068C06B70477047BD
:1031300070B5040004D094F84100002510B106E0F9
:10314000012070BD84F84050204600F023F8242070
:1031500084F841002068C16821F40051C160204614
:1031600001F000F82068016921F4904101612068B4
:10317000416921F02A0141612068C16841F4005190
:10318000C1606564202084F8410084F842006563D2
:10319000002070BD30B585B00024009401940294E5
:1031A000039400681449884224D11448816941F489
:1031B00080418161816901F480410491816941F01C
:1031C0000401816180690E4D00F0040004904FF409
:1031D0000070009002200190032003906946284669
:1031E000FEF72EFE2815CDE9000469462846029414
:1031F000FEF726FE05B030BD003801400010024049
:10320000000801402DE9F843044690F841001F46AC
:1032100016460D46202802D00220BDE8F8837DB175
:1032200076B100206064212084F84100FEF70EFF93
:10323000A6848046E684A068B0F5805F02D003E0F3
:103240000120EAE7206910B12E4600250EE0002695
:103250000CE08021204600F0E1FFA0B9AEB116F8E5
:10326000010B21684860E08C401EE084E08C4346FE
:103270004FF0000200970028EBD14FF040012046AC
:1032800000F0CCFF30B10320C7E735F8020BC0F3E4
:103290000800E6E7202084F841000020BDE7000098
:1032A00070B50122094D140321462846FEF7C9FED8
:1032B00000224FF4346000BF521C8242FBD32146EF
:1032C0002846BDE870400022FEF7BBBE0008014062
:1032D000FEE70000034908B1080601E04FF4805002
:1032E000086070471014014070B51C46154600F088
:1032F0005BF9044905FB04F04989BDE8704000F022
:1033000097B800001400002001B5009801E0401EAD
:1033100000900028FBD108BDF0B5184E203A1FFAE6
:1033200082FCF568AA88EB882D6802FB03F7FC177E
:1033300007EB5474C4F3C7040CFB045500F034F9D4
:103340002C20C10608800021728933890C4E802709
:1033500010E0002015F801C027FA00FE1CEA0E0F4D
:1033600001D0338000E03280401CC0B20828F1D385
:10337000491CC9B2A142ECD3F0BD000014000020EA
:1033800000000260F0B50F46064600250F4C19E01C
:10339000E068638881882944994203D9C18800255F
:1033A00031448EB2C088A1883044884201D90025BA
:1033B0002E4631462846FFF7AFFFE0687F1C808825
:1033C000284485B23A78002AE2D1F0BD14000020EA
:1033D00010B515484FF0204100F144020160134937
:1033E0004160002108231160C2E90113D1605C062D
:1033F0001161C2E905148160C0E903131022C0E91C
:1034000005211202C161C0E90912C1620163416371
:10341000816300F01BF8044ABDE8104044321146B5
:103420000148FFF71DB90000B0010020040100A011
:1034300010B500222C23DC062380034B01E0198009
:10344000521C8242FBD310BD0000026070B52748B9
:1034500086B0816941F020018161816901F020011C
:103460000491816941F040018161816901F040016D
:103470000491816941F080018161816901F08001DD
:103480000491816941F480718161816901F48071E5
:103490000491416941F4807141614069144D00F427
:1034A00080700490012001900290032003904FF45B
:1034B0008050009069462846FEF7C2FC0D4E02245B
:1034C000694630460094FEF7BBFC4CF6B370CDE97C
:1034D000000469462846FEF7B3FC4FF68070009062
:1034E00069463046FEF7ACFC06B070BD00100240E5
:1034F000001401400018014030B507283AD81E4991
:10350000C4074FF0F00208704FF4A07313D04B8043
:103510008A80362213071A80CC88184AA4F51345EE
:10352000413D04D0A4F50545523D07D008E00824EC
:1035300044EA401003E04A808B80EAE740011080B3
:103540002A2018800020108010804888401EC0F378
:1035500007241480C0B210802B2018800020108017
:1035600010808888401EC0F307211180C0B21080EF
:103570002C20188030BD00001400002000000260E4
:1035800010B5FFF763FFFFF723FF0120FFF7A2FE4F
:1035900000F0BEF900F028F802480078BDE81040BD
:1035A000FFF7AABF1400002070B54FF0C0452A24D1
:1035B0002C800C4C060A2680C6B226801044401E81
:1035C000020A2280C0B220802B202880080A208096
:1035D000C8B22080C818401E010A2180C0B22080D5
:1035E00070BD00000000026010B500F06DF9B34935
:1035F000B44AA0F51343C880B1494FF0C044413BE1
:103600007ED0A0F50543523B7BD1CF202080002007
:103610000880C120088030200880ED2020806420B0
:103620000880032008801220088081200880E8207C
:103630002080852008801020088078200880CB20FA
:103640002080392008802C20088000200880342029
:10365000088002200880F720208020200880EA20AF
:103660002080002008800880C02020802120088041
:10367000C120208011200880C52020802D200880B6
:103680003320088036202080002008803A202080C7
:1036900055200880B1202080002008801720088055
:1036A000B62020800A200880A2200880F6202080F2
:1036B0000120088030200880F2202080002008802F
:1036C0002620208001200880E0202080D020088053
:1036D0000020088002200880072008800B20088036
:1036E0001A2008803120088054200880402008805B
:1036F000292008801220088008800880172001E017
:1037000029E027E00880E1202080D02008800020E8
:1037100008800220088007200880052008802520D6
:1037200008802D20088044200880452008801C2027
:10373000088018200880162008801C2008801D2082
:103740000880112020801046FFF7DEFD2920208010
:103750002C20208010BDCF202080002008808120D8
:10376000088030200880ED2020806420088003201D
:1037700008801220088081200880E8202080852091
:1037800008801020088078200880CB2020803920F5
:1037900008802C2008800020088034200880062023
:1037A0000880F720208020200880EA202080002048
:1037B00008800880B1202080002008801B2008801D
:1037C000B62020800A200880A2200880C020208007
:1037D00035200880C120208011200880C52020804D
:1037E000452008800880C7202080A2200880F22081
:1037F0002080002008802620208001200880E020F2
:1038000020800F20088026200880242008800B209C
:1038100008800E2008800920088054200880A820F5
:103820000880462008800C20088017200880092086
:1038300008800F2008800720088000200880E120F1
:10384000208000200880192008801B200880042088
:10385000088010200880072008802A200880472040
:10386000088039200880032008800620088008800E
:1038700030200880382008800F20088036202080E3
:10388000C82008802A202080002008800880088026
:10389000EF2008802B202080002008800880012055
:1038A00008803F2008803A20208055200880112081
:1038B00020801046FFF728FD29204AE71400002049
:1038C00000000260FCBF020010B54FF0C0430420AE
:1038D00018800E490888088808884FF6FF7202EAA7
:1038E000002408882043A0F50544523C0DD0D32085
:1038F000188008880888088802EA0022088810438F
:10390000A0F51341413900D0002010BD0000026035
:1039100070B5084C4FF40030206040F6FF25284673
:10392000FFF7F2FC022020602846BDE87040FFF758
:10393000EBBC0000101801400349CA68D3884A88CC
:1039400001460020FFF7D0BC140000200148C068E9
:103950007047000014000020014A10815181704717
:10396000140000200149C8607047000014000020C6
:103970002DE9F04385B00024254800940194029479
:103980000394816941F004018161816901F00401BE
:103990000491816941F008018161816901F00801A8
:1039A0000491816941F0100181618069DFF86480D0
:1039B00000F0100041F2FC05049000222946404628
:1039C000FEF73FFBDFF850904FF440770022394676
:1039D0004846FEF736FB0095022601250396CDE901
:1039E000015469464046FEF72BFA3801CDE9000440
:1039F00069460A480294FEF723FA00970396CDE938
:103A0000015469464846FEF71BFA05B0BDE8F0834D
:103A1000001002400008014000100140000C01406D
:103A200010B592B000240F941C2108A81094FCF744
:103A30002FFD20216846FCF72BFD20481E49016020
:103A40004721C0E9011444F61F61C0E90314446131
:103A50008461FFF7A4FA08B1FEF7EDF80F940FA9FF
:103A600016481094FEF768FE08B1FEF7E4F86020EF
:103A7000CDE908040A940B940C940D94002208A933
:103A80000E480E94FFF725FA08B1FEF7D4F800941B
:103A90004FF40050CDE90440029401940394694628
:103AA00006480794FEF71EFE08B1FEF7C4F8034867
:103AB000FFF7D2F912B010BD002C01401002002017
:103AC00010B586B00024184805940494009401941D
:103AD00002941449039401604721C0E901144FF690
:103AE000FF71C0E903148461FFF71AF808B1FEF70B
:103AF000A2F8049404A90C480594FEF71DFE08B131
:103B0000FEF799F80120CDE90040029404226946AD
:103B100005480394FEF772FF002801D0FEF78BF8EA
:103B200006B010BD000400405802002010B58EB051
:103B300000240794089409940A940B941C21684665
:103B40000C94FCF7A5FC2A48284901602321C0E910
:103B500001146321C0E903148461FEF72BFE08B150
:103B6000FEF769F84FF48050079007A92048FEF748
:103B700095FE08B1FEF75FF81D48FFF710FA08B18F
:103B8000FEF759F80B940BA919480C94FEF7D4FDD5
:103B900008B1FEF750F86020CDE90004029400223D
:103BA000694613480494FFF794F908B1FEF743F807
:103BB000042269460E48FFF78CF908B1FEF73BF87E
:103BC000082269460A48FFF784F908B1FEF733F87E
:103BD0000C2269460648FFF77CF908B1FEF72BF87E
:103BE0000348FFF739F90EB010BD0000000800408F
:103BF000A00200200C4810B50A4901604FF4E131E1
:103C00004160002181600C22C160C0E90412816121
:103C1000C161FFF78DFA002803D0BDE81040FEF720
:103C20000AB810BD00380140E8020020FEE7FEE7B8
:103C30007047000010B5074901F0A8F8064901F0E7
:103C4000BBF9064901F034F801F062F9044909684A
:103C5000486310BD000034430000FA440000FA43FA
:103C6000100200200148FFF7E5BF00000000B44249
:103C70000148FFF7DFBF0000000025430148FFF7C0
:103C8000D9BF0000000070417047000010B5164C0D
:103C9000012211022046FEF7D4F9012251022046EA
:103CA000FEF7CFF9114C012204212046FEF7C9F995
:103CB000012208212046FEF7C4F9012210212046E6
:103CC000FEF7BFF9012220212046FEF7BAF90122B2
:103CD00040212046FEF7B5F920460122BDE81040FC
:103CE0008021FEF7AEB9000000100140000801403D
:103CF000FEF7B2B930B58FB028216846FCF7C8FB93
:103D000014210AA8FCF7C4FB01210804CDE9001026
:103D10000024029402250491CDE907504FF4E010ED
:103D200009906846FEF70CFB08B172B6FEE70F205B
:103D3000CDE90A054FF48060CDE90C4002210AA8C4
:103D40000E94FEF721FA002801D072B6FEE70FB0FC
:103D500030BD70470148FEF7CBBF0000580200207D
:103D6000F0B502681C4B1D4D1D4E1E4F1E4C4FF0F2
:103D7000804C984209D0A04207D0604505D0A842A7
:103D800003D0B04201D0B84204D122F0700E4A688C
:103D900042EA0E02984209D0A04207D0604505D001
:103DA000A84203D0B04201D0B84203D122F44075FA
:103DB000CA682A434D6922F080022A4302608A6859
:103DC000C2620A688262984201D0A04201D10969A8
:103DD000016301214161F0BD002C0140000400405D
:103DE00000080040000C00400034014010B501F014
:103DF0001F030121046A99408C430462016A9A40BE
:103E00001143016210BD10B5846842EA032224F414
:103E10007F440A432243826010BD826822F0700210
:103E20000A4342F00701816070470000F0B5036A61
:103E3000026A22F00102026242688469124E24F092
:103E400073050C682C4323F002058B682B430D4D42
:103E5000A84201D0B04205D123F00807CB683B430C
:103E600023F00403A84201D0B04205D14D6922F4E9
:103E7000407215438A692A434260846149684163FC
:103E80000362F0BD002C014000340140F0B5026A2D
:103E9000036A23F010030362436884690D6824F405
:103EA000E64444EA05248D6822F0200242EA051225
:103EB0000F4D104EA84201D0B04206D1CF6822F07B
:103EC000800242EA071222F04002A84201D0B0422A
:103ED00007D14D6923F4406343EA85038D6943EAC2
:103EE000850343608461496881630262F0BD00001C
:103EF000002C014000340140F0B5026A036A23F44B
:103F0000807303624368C46922F4007224F073056D
:103F10000C68124E2C438D6842EA05220E4DA842D1
:103F200001D0B04206D1CF6822F4006242EA0722F3
:103F300022F48062A84201D0B04207D14D6923F437
:103F4000405343EA05138D6943EA05134360C46196
:103F50004968C1630262F0BD002C01400034014099
:103F600030B5046A026A22F4805202624268C36970
:103F70000D6823F4E64343EA05238D6824F40054D6
:103F800044EA0534084DA84202D0084DA84204D1A5
:103F90004D6922F4804242EA85124260C361496859
:103FA0000164046230BD0000002C01400034014077
:103FB00010B5036A046A24F001040462846924F0E1
:103FC000F00444EA021423F00A020A438461026204
:103FD00010BD000070B5056A046A24F00104046293
:103FE0008469124EB0420ED0114EB0420BD0B0F1E7
:103FF000804F08D00F4EB04205D00F4EB04202D0D5
:104000000E4EB04203D124F00304144301E044F007
:1040100001041A0724F0F00444EA126225F00A03AE
:1040200001F00A0119438261016270BD002C014058
:10403000003401400004004000080040000C004033
:1040400010B5036A046A24F010040462846923F042
:10405000A00324F4704444EA023243EA011182616D
:10406000016210BD30B5046A056A25F010050562CD
:10407000856925F4407545EA022222F470454FF621
:10408000FF7202EA033224F0A0032A43A02404EAC8
:10409000011119438261016230BD000010B5164C58
:1040A000012211022046FDF7CCFF002261152046B7
:1040B000FDF7C7FF114C012204212046FDF7C1FF87
:1040C000002208212046FDF7BCFF012210212046D6
:1040D000FDF7B7FF002220212046FDF7B2FF0122A5
:1040E00040212046FDF7ADFF20460022BDE81040EC
:1040F0008021FDF7A6BF000000100140000801402C
:1041000010B5164C00224FF480712046FDF799FF40
:10411000012251022046FDF794FF114C0022042198
:104120002046FDF78EFF012208212046FDF789FF7A
:10413000002210212046FDF784FF01222021204685
:10414000FDF77FFF002240212046FDF77AFF204641
:104150000122BDE810408021FDF773BF001001402F
:104160000008014070B5044600680169E26821F466
:104170004051114301612169A06808436169084306
:104180002168CA6841F20C639A430243CA602068FE
:104190004169A26921F44071114341611E492068BF
:1041A000884202D1FEF796F801E0FEF783F800EBB3
:1041B000C00101EB0012606864218000B2FBF0F3E3
:1041C000B3FBF1F36FF018067343B2FBF0F5B2FBEB
:1041D000F0F605EB8305322303EB0515B5FBF1F58E
:1041E000B6FBF1F605F0F00505EB0615B2FBF0F6AF
:1041F000B2FBF0F0B0FBF1F06FF01802504306EBA9
:10420000800003EB0010B0FBF1F0216800F00F001C
:104210002844886070BD0000003801402DE9F0415D
:10422000984617460E460446069D27E0681C25D092
:104230002DB1FDF70BFFA0EB0800A8421ED92068A6
:104240000C3050E8001F21F4D07140E80012002A21
:10425000F5D12068143050E8001F21F0010140E83A
:104260000012002AF5D1202084F8410084F8420091
:10427000002084F840000320BDE8F0812068006839
:1042800036EA000004D00020B842CFD00020F3E787
:104290000120F9E7FEE7490050EAC12018BF0420D9
:1042A0004A0D18BF40F0010040F2FF72B2EB515FBF
:1042B00008BF40F00200012808BF05207047090729
:1042C000090E002804DB00F1E02080F8001470479C
:1042D00000F00F0000F1E02080F8141D7047303826
:1042E0000A2801D20120704700207047FDF7BCFE6C
:1042F000FFF700FDFFF73CFBFFF718FCFFF77AFC28
:10430000FFF78EFBFFF7DCFB22A000F0C1F90021D4
:104310002548FEF787FE00212448FEF783FE04218E
:104320002248FEF77FFE08212048FEF77BFE0C2185
:104330001E48FEF777FE1E48FEF77EFA04211C4851
:10434000FEF75AFC1A480068C16841F00101C160DB
:104350005A20FDF763FCFFF713F916A000F098F957
:104360000620FFF7C9F81648FFF7FCFA1F21C8021C
:10437000FFF7F2FA13480021038813480288084621
:10438000FEF7B2FF11A000F083F900BF00F026F89D
:10439000FCE70000B8F7B2BFB7D6B3F5CABCBBAFF5
:1043A000CDEAB3C90D0A000010020020A0020020CF
:1043B000580200204C4344204F4B0D0A00000000DF
:1043C0000C0000201800002016000020BDF8C8EBEB
:1043D000D6F7D1ADBBB70D0A000000002DE9F041C2
:1043E000FFF740FC5A20FDF719FC4FF42F763046BA
:1043F000FDF714FDFEF754FFFDF7DEFC904C206046
:1044000000F02AFC02460B468EA104F11400FBF7D3
:1044100065FFFFF79BFAC088FFF78EFAFFF796FA61
:10442000C08804F11401FEF7ADFF0A20FDF7F6FC89
:10443000894D4FF4805739462846FDF7FDFD4FF46E
:10444000005800287ED041462846FDF7F5FD00289B
:10445000F8D0824D2068A84275DC75DAFFF716FCAB
:10446000FFF706FC4FF496673846FDF7D7FCFEF7DA
:1044700017FFFDF7A1FC60600A20FDF7CFFCFFF7F6
:10448000FDFB3846FDF7CAFCFEF70AFFFDF794FC7A
:10449000A060606800F0E0FB024669480B4670A12E
:1044A0001430FBF71BFFFFF751FAC0884FF6FF7778
:1044B00007EA4000FFF740FAFFF748FAC088604972
:1044C00007EA40001431FEF75DFFA06800F0C4FB6E
:1044D00002465B480B4668A11430FBF7FFFEFFF76E
:1044E00035FAC08800EB400080B2FFF725FAFFF7ED
:1044F0002DFAC088524900EB400080B21431FEF71B
:1045000041FF0A20FDF78AFCFFF7ACFB6068A84278
:104510001DDAA168A9421ADA00F01AFE17D2FFF7D5
:10452000A1FB3046FDF77AFCFEF7BAFEFDF744FC2E
:1045300020600A20FDF772FCFDF73CFB3046FDF7DA
:104540006DFC02E054E04FE078E0FFF7A7FD606803
:10455000A84219DAA168A94216DA00F0F9FC13D2D0
:10456000FFF780FB3046FDF759FCFEF799FEFDF79B
:1045700023FC20606420FDF751FCFDF71BFB304657
:10458000FDF74CFCFFF7BCFDD4E9010100F0E0FDB4
:1045900054D2FFF767FB3046FDF740FCFEF780FE84
:1045A000FDF70AFC20606420FDF738FCFFF776FD7C
:1045B0002068A84201DDFDF7CDFBD4E9010100F040
:1045C000C7FC3BD2FFF74EFB3046FDF727FCFEF75A
:1045D00067FEFDF7F1FB20600A20FDF71FFCFFF7E7
:1045E0008FFD2068A84229DDBDE8F041FDF7B2BB90
:1045F0000A20FDF713FC39462846FDF71DFD4FF450
:10460000967448B9FDF7D6FA2046FDF707FCFFF788
:1046100077FDC820FDF702FC41462846FDF70CFD5A
:1046200000280BD1FDF7C6FA2046FDF7F7FBFFF790
:1046300035FDBDE8F041C820FDF7F0BBBDE8F081D5
:104640003800002044697374616E6365203A202548
:104650002E3266636D200000000C014000000C4209
:104660007A756F44697374616E6365203A20252EF4
:104670003266636D20000000796F75446973746160
:104680006E6365203A20252E3266636D200000009F
:104690000FB40B4870B5094C05AA251F2260049978
:1046A000FBF70AFE82B22A800020206064230449BE
:1046B0000448FEF7A7FD70BC5DF814FB080000205D
:1046C000B0000020E802002010B500290AD00878C8
:1046D000002807D005487844FCF75CFE002801D08C
:1046E000002010BD0248784410BD00000A130000ED
:1046F0000213000010B500290AD00878002807D05E
:1047000005487844FCF746FE002801D0002010BD83
:104710000248784410BD0000FA120000F2120000B6
:1047200021F00042A2F16052B2F5801F01F0004377
:1047300028BFD2F17F6C0BD95FEA001C43EAC202AA
:1047400042EB507018BF704728BF20F0010070473F
:10475000B2F5801FBCBF184670474FEA410C1CF5EC
:10476000001F02D2084600F0EEBC70B500F020FA3F
:1047700000000089FFF7F6BF4FF00040A0F5800071
:10478000704700002DE9C04130B4DFF8A0C23CEA18
:10479000111418BF3CEA131400F0EC8081EA030501
:1047A0001CEA111444EAD57418BF1CEA131500F072
:1047B000C780A4EB05044FF0004545EAC12145EA56
:1047C000C32341EA505143EA525304F17F749942A2
:1047D00004F500344FEAC0204FEAC22208BF9042DD
:1047E00000F09C804FEA13650FF24016765D4FEAA9
:1047F000134506FB05F7C7F1807706FB07F74FEA7D
:10480000D737A7FB03687642C8F58038A7FB06CEEA
:1048100038BFA8F1010807FB08E64FF0000EA6FB21
:10482000028CE6FB03CEDCF1000CCEF1004E38BF6B
:10483000AEF1010EA6FB0C584FF000074FF000053B
:10484000E6FB0E87A1FB08C6A0FB07CE16EB0E0603
:1048500045F10005E1FB076515F1E04E7EBFA4F5CB
:1048600080345FEA46066D4116F1800745F1000588
:104870004FEA17274FEA066647EA0567A6F1DE46C4
:10488000B6F1805F4FEA15251FD9384624F0010C98
:1048900005EBC471BCF1FE6F01EB0C1102D8F0BC4A
:1048A000BDE8008124425CBF01F5801E9EEAC47F02
:1048B00002D4F0BCBDE80081244238D4F0BCA1F1A0
:1048C000C041BDE8004100F0C1B94FEAD22242EA3E
:1048D00043524FEAD323A7FB02864FEAD02040EA97
:1048E000415007FB03661EEA0E0F4FEAD12105FB7C
:1048F000026658BFA6EB0056B6EB00564FEA520EC2
:104900004EEAC37E18EB0E0E56EB530EBDD518EBD8
:1049100002085E417F1C55F10005B6E74FF4801593
:104920004FF000074FF000064FF00008ADE7F0BC75
:104930004FF0000001F1C04101F00041BDE80081ED
:1049400011EA0C1F0CEA131500D00CE013EA0C1F3F
:1049500000F025804FF00000F0BC81EA030101F077
:104960000041BDE80081F0BCBDE8004181EA0301DF
:1049700000F06CB9F0BCBDE8004170B500F018F96A
:10498000097EFC3E00F007B881EA03014FF0000009
:1049900001F00041704781EA030100F057B9F0BC13
:1049A000BDE800414FF0000021497047FFFDFBF9D1
:1049B000F7F5F4F2F0EEEDEBE9E8E6E4E3E1E0DE52
:1049C000DDDBDAD8D7D5D4D3D1D0CFCDCCCBCAC8C4
:1049D000C7C6C5C4C2C1C0BFBEBDBCBBBAB9B8B7EB
:1049E000B6B5B4B3B2B1B0AFAEADACABAAA9A8A8DE
:1049F000A7A6A5A4A3A3A2A1A09F9F9E9D9C9C9BAC
:104A00009A99999897979695959493939291919056
:104A10008F8F8E8E8D8C8C8B8B8A898988888787E7
:104A20008685858484838382828181800000FF075C
:104A30000000F87FB0FA80F310FA03F10AD0C3F156
:104A40001D0303F580634FEA41504FEA035202EB26
:104A5000D12170474FF0000070470000DFF848C1D7
:104A600070B51CEA111E1EBF1CEA13159EEA0C0F3E
:104A700095EA0C0F00F06F8081EA030423EA4C13DF
:104A80004EEAD47E21EA4C1141F4801143F48013A4
:104A9000AE44A1FB024CA0FB0365AEF17F7E36194C
:104AA00055EB0C05A1FB034C4CF10003A0FB021CD1
:104AB00016EB0C06654153F10003094218BF46F09E
:104AC000010613F4007F0BD14FEA03314FEA0530A2
:104AD000340341EA155140EA16506FF003020AE030
:104AE0004FEAC3214FEAC520F40241EA555140EA9A
:104AF00056506FF0020202EB2E4201EB025585EA9E
:104B0000CE710AD05FEA440C18BF24F0004450F183
:104B1000000041F1000120EAD47040F2FE7C6245C1
:104B200000D270BDA84214BF4FF080444FF0404403
:104B3000002E08BF0024BEF1806FA8BFA1F1C041C4
:104B4000BDE8704080F282804FF0000001F1C0416A
:104B500001F0004170479EEA0C0F0CEA131518BFD4
:104B600095EA0C0F06D04FF0000081EA030E0EF01C
:104B7000004170BD00F01CF88900013E00F007B84C
:104B800000F009B84FEA430C5FEA5C5C08D081EAA8
:104B9000030100F05BB84FEA410C5FEA5C5CF6D1C0
:104BA0004FF00000014970470000FF070000F87F48
:104BB0000EF1020E2EF0030E5EF8046B364205D4A1
:104BC000012A43EB030515F5001F12D8012841EB1C
:104BD000010C1CF5001F0CD80ED14FEAD17C15F545
:104BE000001F0CEB4C0C0CF1020C08BF4CEBD37CFF
:104BF00004E04FF0080C01E04FEAD37C0CEB4C05CD
:104C000026FA05F606F00706B6F1040C06D20EEBFE
:104C1000860CBDE870404CF0010C6047DFE80CF0FA
:104C2000090B02024FF000414FF00000A1F50021F6
:104C300070BD19461046012851EB010418BFD4F588
:104C4000001484BF002001F0004170BD0808A0F5E9
:104C500000114FEA3101704743004FEAD30C4FEA8D
:104C60003C0C43401FBF40070CF1605113F0FE4F56
:104C700070471CF0006F03D100200CF0004170471A
:104C80000CF0004343EA507010B540EACC0000F04D
:104C900014FA00BF000000924FEA0001FFF7D6BFF0
:104CA0004FF000414FF00000A1F5002170470000D7
:104CB00090EA010F48BF81F0004100F18282421A60
:104CC0003CBF801A89184FEAD0524FF07F4C1CEA43
:104CD000410FA2EBD15318BF9CEA026F00F03B805A
:104CE0004FF0004C4CEA00204CEA012121FA03FC71
:104CF00010EB0C0C1ED202F1FF325FEA1C2040EBDD
:104D0000C25038BF70471CF07F0F4FEA400C18BFED
:104D1000BCF17F4F38BF7047C3F12003994008BFF3
:104D200020F00100BCF17F4F38BF7047A0F1C040B8
:104D300000F009BA4FEA3C00000A40EBC25028BF1D
:104D40001CF0FF0F4FEA400CE6D018BFBCF17F4FBC
:104D500038BF7047EAE79CEA026F05D010EA5C0FA3
:104D600008BF00F00040704710B500F0A6F900BF82
:104D700064FBBE3E401058BFC0F14040491058BFD0
:104D8000C1F140418142EFF3008070474FF47F0C46
:104D90001CEAD0121EBF1CEAD11392EA0C0F93EA50
:104DA0000C0F00F0858090EA010F48BF42F480723A
:104DB00040F4000C41F400002CF07F4120F07F40D3
:104DC00000B58142A2EB03020FF2081CACEB504E7F
:104DD000C0F100009EF800E04FEA4E0E00FB0EFC12
:104DE00038BF49004FEA2C1C02F5FA020CFB0EF307
:104DF0004FEACE1E4FEA112C4FEAC1210EEB635E43
:104E000042EB22420EFB0CFC4FEA1C5300FB031149
:104E10004FEA112C4FEA01310EFB0CFC4FEADC4C3F
:104E200000FB0C11C14228BF09184CEB03335DF89D
:104E300004EB10EB410143EBC250B2F57C0F38BFDD
:104E4000704729D512F0F00F1CBF00F1C04000F0F0
:104E500000407047008182838485868788898B8C97
:104E60008D8E8F919293959697999A9C9D9FA0A2D3
:104E7000A3A5A7A8AAACAEB0B2B3B5B7B9BCBEC023
:104E8000C2C5C7C9CCCED1D4D7D9DCDFE2E6E9ECC4
:104E9000F0F3F7FAFE0000004FEA400C0CF1807CC2
:104EA000BCF17E4F28BF7047B0F1C04000F04BB955
:104EB00090EA010F0CEAD11348BF42F480726245B8
:104EC00038BF634507D213F47F0F16D080EA010084
:104ED00000F00040704710B500F0EFF8097EFC3E8E
:104EE00000F005B880EA010000F00040704780EA59
:104EF000010000F0004000F026B912F47F0F04BF5B
:104F00000248704780EA010000F01DB90000C07F30
:104F1000C10DD1F19E0206DB4FEA002343F00043AE
:104F200023FA02F07047004207D54FEA4001B1F181
:104F3000FE4F02D24FF00000704710B500F0BDF8F0
:104F400049922480002070476FEA200070470000DB
:104F500050EA010C00F113801CF5000F58BFBCF59E
:104F6000000F01D48842704707D710F5000F58BFD3
:104F700011F5000F15D488427047894270471CF51F
:104F8000000F04D5BCF5000FF7D5814270474FF0F4
:104F9000807C1CEB400F38BF1CEB410F01D28142DB
:104FA000704710B500F089F8922449004FF0005086
:104FB0004FF08051FFF7DEBE4FF47F0C1CEAD01299
:104FC0001EBF1CEAD11392EA0C0F93EA0C0F00F0FB
:104FD000478090EA010F48BF42F480724FF0004CC6
:104FE0004CEA00204CEA012102EB0302A0FB011372
:104FF000A2F50002002918BF43F001035B0028BF9F
:105000004FEA330342EB22425FEA132C4CEBC250CF
:105010002EBFBCEB436FB2F57C0F70474FEA036CB9
:10502000BCF1004F08BF20F00100B2F57C0F38BF83
:1050300070470BD582F0FF0212F5803FC8BF704762
:1050400000F1C040D8BF00F00040704700F5000CF0
:105050005FEA4C0C48BF7047B0F1C04000F073B835
:1050600090EA010F0CEAD11348BF42F48072624506
:1050700038BF634504D280EA010000F00040704769
:1050800010B500F01AF800BF8900013E00F007B823
:1050900000F009B85FEA410C5FEA1C6C08D080EAB6
:1050A000010000F050B85FEA400C5FEA1C6CF6D1DA
:1050B0004FF00040A0F5800070470EF1020E2EF078
:1050C000030E5EF8044B244204D44FEA4102B2F1CD
:1050D0007F4F11D84FEA4003B3F17F4F0CD80ED168
:1050E0004FEAD07CB2F17F4F0CEB4C0C0CF1020C70
:1050F00008BF4CEBD17C04E04FF0080C01E04FEA14
:10510000D17C0CEB4C0324FA03F404F00704B4F153
:10511000040C06D20EEB840CBDE810404CF0010CE0
:105120006047DFE80CF0070802024FF00040A0F5EE
:10513000800010BD0846420018BFD2F1807288BFBF
:1051400000F0004010BDFF2141EAD050C00570477B
:1051500051EA000C00F113801CF5000F58BFBCF59C
:10516000000F01D48142704707D711F5000F58BFD7
:1051700010F5000F15D481427047894270471CF525
:10518000000F04D5BCF5000FF7D5884270474FF0EB
:10519000807C1CEB410F38BF1CEB400F01D28842D2
:1051A000704780EA010081EA000180EA0100FFF710
:1051B000F8BE000090EA010F48BF81F000413FF5C2
:1051C0007EAD421A04D882F00042A0EB02001144E6
:1051D0004FEAD0524FF07F4C1CEA410FA2EBD15363
:1051E00018BF9CEA026F4AD04FF0004C4CEA0020F6
:1051F0004CEA012121FA03FCB0EB0C0C0FD412F0A5
:10520000FE0F36D05FEA4C001DD5001240EBC250B5
:1052100038BF70471CF03F0F18BF70470BE0A2F17A
:1052200001025FEA1C2040EBC25038BF70471CF0FF
:105230007F0F18BF7047C3F12003994014BF401E71
:1052400020F00100704780084FEA122308BF704722
:10525000B0FA80FCA2EB0C02CCF1280C60FA0CF046
:1052600093EA122F04BF00EBC25070474FEAC3709D
:105270007047130A5FEADC1008BF7047F6E79CEA44
:10528000026F04D010EA5C0F08BF0020704710B511
:10529000FFF713FF40DFF63E81F000407047FBF759
:1052A000ACBAFBF7BFBD000000000000000000002A
:1052B0000000000000000000001818181818180856
:1052C000000818000000000000342424240000001E
:1052D0000000000000000000000016247F242424A9
:1052E0007E2424000000000000083E6848681C1668
:1052F00012127C10100000000061D2967408101683
:105300002949C6000000000000003C646438724A6D
:10531000CE467F000000000000181818180000009A
:1053200000000000000000000004081810303030B9
:10533000301010180C04000000201008080C0404A1
:10534000040C08181020000000080A341C6A080029
:105350000000000000000000000000001818187F86
:1053600018181800000000000000000000000000F5
:105370000018180830000000000000000000003C89
:10538000000000000000000000000000000000001D
:105390000018180000000000000206040C080810A5
:1053A000102020400000000000003C6642475B7374
:1053B00042663C0000000000000018784808080819
:1053C00008087E000000000000003C4606060408B5
:1053D00010207E000000000000007C0606043C0255
:1053E00002067C000000000000000C1C1424644431
:1053F000FF0404000000000000007E6060607E0288
:1054000002067C000000000000001E30604876426A
:1054100042623C000000000000007E0206040C080E
:10542000181030000000000000003C6242361C668C
:1054300042423C000000000000003C664242661A06
:1054400002047800000000000000000018180000AE
:1054500000181800000000000000000018180000EC
:105460000018180830000000000000000418306028
:10547000100C0600000000000000000000007E008C
:105480007E0000000000000000000000301804064C
:105490000C1020000000000000301C06060618104A
:1054A0000010100000000000001C224141DDB5A5E5
:1054B000A5AF94C0403C00000000181C34242662B4
:1054C0007E43C1000000000000007C4642467C4252
:1054D00042427C000000000000001E20404040408E
:1054E00040603E000000000000007C464243434311
:1054F000424678000000000000007E6060607E6030
:1055000060607E000000000000007E6060607E60E1
:10551000606060000000000000001E604040CE425D
:1055200042623E00000000000000424242427E42D1
:10553000424242000000000000007E1818181818AF
:1055400018187E000000000000007C04040404041D
:1055500004447800000000000000424448507058A5
:105560004C444200000000000000202020202020A9
:1055700020203E000000000000006266675F5B5B69
:10558000C1C1C100000000000000626272525A4AAC
:105590004E4646000000000000003C6243C3C3C307
:1055A00043623C000000000000007C464242467816
:1055B000404040000000000000003C6243C3C3C301
:1055C00043623C180F00000000007C6662667C6C41
:1055D000646662000000000000003E6040601C063F
:1055E00002027C000000000000007F181818181844
:1055F00018181800000000000000424242424242D7
:1056000042623C00000000000000C14342622624C8
:10561000341C1800000000000000C1C141495B5B60
:105620007666660000000000000043663418181C0F
:105630002466C300000000000000C14266341C184C
:10564000181818000000000000007E02040C18105A
:1056500020607E0000000000001C101010101010D0
:1056600010101010101C000000402020101008081E
:105670000C04060200000000003C0C0C0C0C0C0C8E
:105680000C0C0C0C0C3C00000000181C24620000E8
:10569000000000000000000000000000000000000A
:1056A0000000000000FF00000020100000000000CB
:1056B0000000000000000000000000003C06023E68
:1056C00042467A0000000000004040405C624242D6
:1056D00042427C0000000000000000001E206040EC
:1056E00060203E0000000000000202023E624242D2
:1056F00042663A0000000000000000003C62427E6A
:1057000040603E0000000000000F1810107E1010D6
:105710001010100000000000000000003F6642660C
:1057200058403E43423C0000004040405C624242E0
:1057300042424200000000000018180078080808E3
:1057400008087E000000000000040C007C04040433
:10575000040404040C78000000606060626C7870DF
:105760006864620000000000007808080808080863
:1057700008087E000000000000000000764B4B4B44
:105780004B4B4B0000000000000000005C624242F6
:105790004242420000000000000000003C62424320
:1057A00042623C0000000000000000005C624242D7
:1057B00042427C4040400000000000003E62424205
:1057C00042663A0202020000000000006E7263604E
:1057D0006060600000000000000000003E20203CEF
:1057E00006027C000000000000001010FE101010E7
:1057F00010101E0000000000000000004242424263
:1058000042663A00000000000000000043426624A7
:10581000341818000000000000000000C1C15B5AED
:105820005E666600000000000000000062261C1892
:105830001C266200000000000000000043426624B5
:10584000341C181830E00000000000007E060C1820
:1058500010207E0000000000000E181010103070A4
:1058600010101010180E0000080808080808080892
:1058700008080808080800000030180808080C0E7E
:105880000808080818300000000000000000714BF4
:1058900006000000000001020203040506070809D3
:1058A0000A0B0C0D0E0F101000000000000000008D
:1058B00001020304060708090000000001020304B6
:1058C00004000008000000000000000200010000C9
:1058D00010000000000000000000000030313233F2
:1058E0003435363738394142434445464030580014
:1058F0003031323334353637383961626364656646
:1059000040307800303132333435363738396162DF
:105910006364656678700030313233343536373839
:1059200039414243444546585000000002400000BF
:10593000000000A00000000005400000000000C8BA
:10594000000000000C4000000000409C000000002F
:10595000194000000020BCBE0000000034400000E0
:10596000BFC91B8E00000004B5400000504BCFD0D3
:105970006607E2CF010000006C4100003E8251AAA0
:10598000DFEEA73401000000D9420000DCB5A0E240
:105990003A301F97FFFFFFFFB4450000FD25A0C868
:1059A000E9A3C14FFFFFFFFFFF3F000000000080A1
:1059B00000000000FF3F0000000000800000000029
:1059C0000C5B000800000020380000006C0100089B
:1059D000445B0008380000205809000088010008D6
:1059E0001C00000043000000F8FFFFFF0C00000057
:1059F0000E0000000F0000002E000000100100004B
:105A000043000000F8FFFFFF00404040404040409E
:105A10004040414141414140404040404040404081
:105A20004040404040404040400502020202020225
:105A30000202020202020202022020202020202074
:105A40002020200202020202020290909090909088
:105A50001010101010101010101010101010101046
:105A600010101010020202020202888888888888BA
:105A700008080808080808080808080808080808A6
:105A800008080808020202024000000000000000AE
:105A90000000000000000000000000000000000006
:105AA00000000000000000000000000000000000F6
:105AB00000000000000000000000000000000000E6
:105AC00000000000000000000000000000000000D6
:105AD00000000000000000000000000000000000C6
