:020000040800F2
:10000000180A0020CD010008DB2A0008C91F0008DB
:10001000D92A000807040008513100080000000038
:10002000000000000000000000000000DF2A0008BF
:100030007504000800000000DD2A0008E32A00081B
:10004000E7010008E7010008E7010008E7010008F0
:10005000E7010008E7010008E7010008E7010008E0
:10006000E7010008E7010008E7010008E7010008D0
:10007000E7010008E7010008E7010008E7010008C0
:10008000E7010008E7010008E7010008E7010008B0
:10009000E7010008E7010008E7010008E7010008A0
:1000A000E7010008E7010008E7010008E701000890
:1000B000E7010008492B0008E7010008E7010008F4
:1000C000E7010008E7010008E7010008E701000870
:1000D000E701000839310008E70100084531000850
:1000E000E7010008E7010008E7010008E701000850
:1000F000E7010008E7010008E7010008E701000840
:10010000E7010008E7010008E7010008E70100082F
:10011000E7010008E7010008E7010008E70100081F
:10012000E7010008E7010008E7010008E70100080F
:1001300000F002F800F03AF80AA090E8000C8244BF
:100140008344AAF10107DA4501D100F02FF8AFF29C
:10015000090EBAE80F0013F0010F18BFFB1A43F0A5
:1001600001031847183A0000383A0000103A24BF3B
:1001700078C878C1FAD8520724BF30C830C144BF0C
:1001800004680C607047000000230024002500264E
:10019000103A28BF78C1FBD8520728BF30C148BFEA
:1001A0000B6070471FB51FBD10B510BD00F0F6F80D
:1001B0001146FFF7F7FF02F0DDFF00F014F903B47A
:1001C000FFF7F2FF03BC00F017F900000948804771
:1001D00009480047FEE7FEE7FEE7FEE7FEE7FEE729
:1001E000FEE7FEE7FEE7FEE704480549054A064B41
:1001F00070470000452B000831010008180400205A
:10020000180A00201806002018060020032A40F2D1
:10021000308010F0030C00F0158011F8013BBCF1A8
:10022000020F624498BF11F801CB00F8013B38BFC0
:1002300011F8013BA2F1040298BF00F801CB38BFCE
:1002400000F8013B11F0030300F07180083AC0F0A0
:10025000088051F8043B083A51F804CBA0E8081094
:10026000F5E7121D5CBF51F8043B40F8043BAFF3C7
:100270000080D20724BF11F8013B11F801CB48BF21
:1002800011F8012B24BF00F8013B00F801CB48BF57
:1002900000F8012B70474FF000020429C0F01280D3
:1002A00010F0030C00F01B80CCF1040CBCF1020F29
:1002B00018BF00F8012BA8BF20F8022BA1EB0C01FE
:1002C00000F00DB85FEAC17C24BF00F8012B00F8F4
:1002D000012B48BF00F8012B70474FF0000200B51A
:1002E000134694469646203922BFA0E80C50A0E859
:1002F0000C50B1F12001BFF4F7AF090728BFA0E807
:100300000C5048BF0CC05DF804EB890028BF40F8D2
:10031000042B08BF704748BF20F8022B11F0804F14
:1003200018BF00F8012B704770477047704710B531
:10033000203AC0F00B80B1E81850203AA0E81850DD
:10034000B1E81850A0E81850BFF4F5AF5FEA027C9E
:1003500024BFB1E81850A0E8185044BF18C918C00D
:10036000BDE810405FEA827C24BF51F8043B40F8AE
:10037000043B08BF7047D20728BF31F8023B48BF93
:1003800011F8012B28BF20F8023B48BF00F8012BD1
:100390007047000000487047B80300207546FFF71B
:1003A000F9FFAE4605006946534620F00700854632
:1003B00018B020B5FFF718FFBDE820404FF0000649
:1003C0004FF000074FF000084FF0000B21F007013D
:1003D000AC46ACE8C009ACE8C009ACE8C009ACE880
:1003E000C0098D46704710B50446AFF30080204623
:1003F000BDE81040FFF7E3BE01491820ABBEFEE7A1
:10040000260002007047FEE710B542F21073052285
:1004100003A1054801F08AFDBDE8104000F0D6B800
:1004200031620D0A00000000AC02002010B542F25B
:100430001073052203A1054801F078FDBDE81040C6
:1004400002F026BD33620D0A00000000AC0200205D
:1004500010B542F21073052203A1054801F066FDB4
:10046000BDE8104002F01CBD32620D0A0000000021
:10047000AC020020704730B50546012403E001209E
:1004800002F0F6FF641CAC42F9DD30BD00EBC001A8
:100490004FF0E02041610021816101220261026987
:1004A000D30701D0D203FAD501618161704772B6DA
:1004B000FEE7000030B5B3F5804F05D06FF0704116
:1004C00040F82210002030BD8C690B688D682343F2
:1004D0004C688989240144EA0524234343EA014105
:1004E00050F82230014C23401943E9E70000F0CFD7
:1004F00030B50A6850F8223023F0010340F822306A
:100500008C68204B4A68082C1ED02243D1E9034551
:100510002C4322434C6922438C692243CC692243F9
:100520000C6A22434C6A22438C6A2243CC6A2243DF
:100530000C6B0968224350F821401C4052EA040227
:1005400040F82120002030BDD1E9034542F00802E7
:100550002C4322434C6922438C692243CC692243B9
:100560000C6A22434C6A22438C6A2243CC6A22439F
:100570000C6B0968224350F821401C40224342F092
:100580004002DDE78100F7FF30B5D1E9003443EAEE
:1005900004138C688D89240244EA054423430C8AA1
:1005A000094D00EB820005EB045423430C7D6D01E3
:1005B00005EB0464896923430B43416801F0404122
:1005C0000B434360002030BD0000F0FF04220249CD
:1005D000332001F01BBD00000400002010B590F88E
:1005E00021100022022905D00421816380F82020F7
:1005F000012010BD01680B6823F00E030B60016839
:100600000B6823F001030B6090F84030C46B0121AC
:1006100001FA03F3636080F8211080F8202010466F
:1006200010BD00002DE9F05F90F821100024022990
:1006300003D004218163012485E001680A6822F067
:100640000E020A6001680A6822F001020A603F4E49
:100650003E4FB215DFF8F4C0DFF8F090DFF8ECA001
:10066000DFF8E8B0DFF8E4E00168783F1301150235
:10067000ACF1640CA9F15009AAF13C0AABF1280BCA
:10068000AEF1140E4FF48018B14227D9B9420ED002
:10069000614512D049451DD0514518D0594518D053
:1006A000714501D1424615E0294EB14201D10122E6
:1006B00010E0274E1436B14201D110220AE0244E38
:1006C0002836B14206D0224A3C32914201D11A4624
:1006D00000E02A461E49091F0A602BE0B94213D0E8
:1006E000614517D0494522D051451DD059451DD0EF
:1006F000714501D142461AE0B14202D14FF08072F9
:1007000015E0134EB14201D1012210E0104E143613
:10071000B14201D110220AE00D4E2836B14206D076
:100720000B4A3C32914201D11A4600E02A46074961
:1007300080394A60012180F82110002180F82010C2
:10074000416B01B188472046BDE8F09F8000024020
:10075000080402402DE9F84FDFF8C8910024A9F100
:10076000040B23460F2709F1040AABF1040ED1E074
:100770000125A54006EA0502AA4276D1DFF8A8C104
:100780004E68A6EB0C0866452BD00DDC032E34D04A
:1007900005DC36B3012E19D0022E2FD11BE0112E0D
:1007A00016D0122E2AD119E0B8F5881F19D006DC10
:1007B000B8F5803F15D0B8F5801F1FD111E0B8F50E
:1007C000001F0ED0B8F5041F18D10AE0CB6815E061
:1007D000CB681B1D12E0CB6808330FE0CB680C33ED
:1007E0000CE08B682BB1012B4FF0080303D045615F
:1007F00004E0042302E0056100E00023FF2A01D8A1
:10080000064601E000F104064FEA840501D9A5F18E
:100810002005D6F8008007FA05FC28EA0C0803FA40
:1008200005F548EA0508C6F800804D68ED0070D56A
:100830003E4DAE6946F00106AE61AD6924F0030697
:1008400005F0010500953A4D06EB050CDCF8085063
:10085000A607360F07FA06F825EA0805DFF8D48060
:10086000404503D14FF0000825E052E0DFF8C88092
:10087000404502D14FF001081DE0DFF8C08040453F
:1008800002D14FF0020816E0DFF8B480404502D1F3
:100890004FF003080FE0DFF8AC80404502D14FF085
:1008A000040808E0DFF8A080404502D14FF00508B9
:1008B00001E04FF0060808FA06F848EA0508CCF807
:1008C00008804D68D9F80060ED024D4601D5164309
:1008D00000E096432E604D68DAF80060AD025546A0
:1008E00001D5164300E096432E604D68DBF80060AA
:1008F000AD035D4601D5164300E096432E604D687A
:10090000DEF80060ED03754601D5164300E096431E
:100910002E60641C0A681646E2407FF429AFBDE8E9
:10092000F88F000008040140000011100010024080
:100930000000014000080140000C0140001001408F
:100940000014014000180140001C0140014880686B
:10095000704700005400002002488168027811446A
:100960008160704754000020074810B5016841F0CD
:1009700010010160032000F075F80F2000F006F868
:1009800000F024F8002010BD0020024070B50D4D8D
:1009900004464FF47A712878B1FBF0F00A490968EF
:1009A000B1FBF0F000F008FB48B9102C07D2002290
:1009B0002146501E00F036F800206C6070BD01200A
:1009C00070BD000054000020600000200C4808B5F5
:1009D000816941F001018161816901F001010091AA
:1009E000C16941F08051C161C06900F08050009040
:1009F0000448416821F0E06141F00071416008BDA8
:100A00000010024000000140002809DB00F01F0236
:100A1000012191404009800000F1E020C0F8001160
:100A200070470000F0B40E4B1B680C46C3F3022362
:100A3000C3F10705042D00D90425191D072901D28A
:100A4000002300E0DB1E012606FA05F1491E2140C5
:100A500099409E40761E16403143F0BC02F079BBAF
:100A60000CED00E0064900F0070208684FF6FF03AE
:100A7000184040EA0220034A104308607047000013
:100A80000CED00E00000FA052DE9F0470F460500E7
:100A900061D0434E306800F00700B84209D2306898
:100AA00020F0070038433060306800F00700B8429B
:100AB00051D128683B4C810712D5400703D56068A7
:100AC00040F4E06060602878000703D5606840F477
:100AD000605060606068A96820F0F00008436060C2
:100AE0002878C00728D06868012810D0216802281B
:100AF00010D0890700292EDA616821F00301014333
:100B00006160FFF723FF804641F288390DE02168DC
:100B10008903EFE78901EDE7FFF718FFA0EB080174
:100B2000494502D90320BDE8F0876068696800F094
:100B30000C00B0EB810FEFD1306800F00700B84235
:100B40000BD9306820F0070038433060306800F07F
:100B50000700B84201D00120E5E72878400705D515
:100B60006068E96820F4E060084360602878000766
:100B700006D56068296920F4605040EAC1006060D1
:100B800000F038F86168084AC1F30311515CC840AD
:100B90000649086006480068FFF7F8FE0020C2E733
:100BA0000020024000100240623B0008600000206C
:100BB000580000200448054900684968044AC1F308
:100BC0000221515CC84070476000002000100240C4
:100BD000723B00080448054900684968044AC1F3AB
:100BE000C221515CC84070476000002000100240E4
:100BF000723B00080E4A51680E4801F00C03042BAA
:100C000011D0082B0FD10C48C1F38343C903C05C3A
:100C10000AD55168084AC1F34041921E515C054A09
:100C20005043B0FBF1F0704704494843704700005F
:100C30000010024000127A00523B000800093D00FB
:100C40002DE9F84F040070D02078C04DC00749D07E
:100C50006868C0F38100012807D06868C0F381008C
:100C6000022809D16868C00306D52868800339D5F1
:100C700060680028E7D035E06068B0F5803F0BD0B1
:100C800010B1B0F5A02F11D0286820F48030286072
:100C9000286820F4802002E0286840F48030286032
:100CA000606890B1FFF752FE06460AE0286840F4FB
:100CB00080202860F0E700BFFFF748FE801B642813
:100CC00073D828688003F7D50CE0FFF73FFE06468F
:100CD00005E000BFFFF73AFE801B6428F0D82868C3
:100CE0008003F7D420789A4E80074FF001094FF027
:100CF000000839D5686810F00C0F07D06868C0F399
:100D00008100022809D16868C00306D428688007DA
:100D100014D52069012808D110E02069B0B1C6F8C7
:100D20000090FFF713FE074605E00AE1FFF70EFE0D
:100D3000C01B0228C4D828688007F7D528686169D5
:100D400020F0F80040EAC10028600DE0C6F80080FD
:100D5000FFF7FCFD074604E0FFF7F8FDC01B022883
:100D600023D828688007F7D4207800072CD5794845
:100D7000A169D9B1C0F80090FFF7E8FD074604E08B
:100D8000FFF7E4FDC01B02280FD8686A8007F7D57B
:100D900071484FF4FA510068B0FBF1F0009000BFC9
:100DA0000098411E0091FAD20EE080E0C0F8008069
:100DB000FFF7CCFD074604E0FFF7C8FDC01B022883
:100DC00075D8686A8007F7D42078400760D5E8694D
:100DD0000027C00008D4E86940F08050E861E86965
:100DE000012700F0805000905C480168C90513D4C9
:100DF0000168834641F480710160FFF7A7FD8246D8
:100E000006E000BFFFF7A2FDA0EB0A0064284ED861
:100E1000DBF80000C005F5D5E06801280AD008B16C
:100E2000052813D0286A20F001002862286A20F0E3
:100E3000040002E0286A40F001002862E06841F204
:100E4000883B98B1FFF782FD82460BE0286A40F0AC
:100E500004002862EEE700BFFFF778FDA0EB0A016F
:100E600059455AD8286A8007F6D50CE0FFF76EFD81
:100E7000824605E0FFF76AFDA0EB0A0159454CD810
:100E8000286A8007F6D41FB1E86920F08050E86135
:100E9000E06988B36968C1F38101022944D002285E
:100EA000C6F8608004D0FFF751FD044638E034E016
:100EB000FFF74CFD074604E0FFF748FDC01B022882
:100EC0002BD828688001F7D4206AB0F5803F05D17F
:100ED0006868A16820F4003008436860D4E908011C
:100EE0000843696821F4741108436860C6F860908B
:100EF000FFF72CFD044606E025E000BFFFF726FDC6
:100F0000001B022809D828688001F7D51BE000BF24
:100F1000FFF71CFD001B022802D90320BDE8F88F53
:100F200028688001F4D40EE00128F7D06868226AAE
:100F300000F48031914204D1616A00F4701088425B
:100F400001D00120EAE70020E8E70000001002409D
:100F500000004242800442426000002000700040D5
:100F600070B515460E46040003D094F83D0010B14C
:100F700007E0012070BD002084F83C00204600F00E
:100F80001AF804F108012068FFF7B2FA3146A268A6
:100F90002068FFF7F9FAD4E901022946236BFFF72D
:100FA00089FAA168206850F8212042F0010240F837
:100FB0002120002070BD704710B5401EB0F1807F29
:100FC00001D3012010BD4FF0E02460610F216017B4
:100FD00002F0BFF80020A06107202061002010BDB2
:100FE0007047704710B590F83C20012A22D00122AA
:100FF00080F83C20CA688C6822F4407222434C6816
:1010000022F4806222430C6822F4006222430C69BD
:1010100022F4805222434C6922F400522243C969CF
:10102000002322F480420A4301684A6480F83C307D
:10103000002010BD022010BD70B590F83C20012AA0
:101040002CD0012480F83C40022280F83D20036827
:101050005A689D6822F070060A6832435A60104B45
:1010600002689A420ED00F4B9A420BD0B2F1804FD9
:1010700008D00D4B9A4205D00C4B9A4202D00C4B33
:101080009A4204D1496825F080031943916080F8A1
:101090003D40002180F83C10084670BD022070BD24
:1010A000002C0140003401400004004000080040D2
:1010B000000C004010B5040003D094F83D0010B1BE
:1010C00007E0012010BD002084F83C00204600F01D
:1010D0001FF8022084F83D00211D206801F03AFD30
:1010E000012084F8460084F83E0084F83F0084F82C
:1010F000400084F8410084F8420084F8430084F8FA
:10110000440084F8450084F83D00002010BD000034
:1011100008B500680649884208D10648C16941F00F
:101120000401C161C06900F00400009008BD000026
:10113000000800400010024090F83D10012901D045
:1011400001207047022180F83D1000680E49884256
:101150000ED00E4988420BD0B0F1804F08D00C4918
:10116000884205D00B49884202D00B49884204D1FD
:10117000816801F00701062903D0016841F00101EF
:101180000160002070470000002C01400034014045
:101190000004004000080040000C004070B5044608
:1011A00090F83C000025012817D0012684F83C6007
:1011B000022084F83D002068826822F0770222F441
:1011C0007F4282600868502838D00DDC20284FD03C
:1011D00005DC90B3102811D14AE0022070BD302800
:1011E00046D040280AD13BE060282FD070280DD08F
:1011F000B0F5805F03D0B0F5005F12D0012584F810
:101200003D60002084F83C00284670BDCB68D1E9E1
:101210000121206801F0F1FC2068816841F077012C
:1012200009E0CB68D1E90121206801F0E6FC2068E3
:10123000816841F480418160E1E719E0CA6849684A
:10124000206801F0AFFD5021206806E0CA684968B7
:10125000206801F0EFFD6021206801F0D8FCCEE7A6
:10126000CA684968206801F09DFD40212068F4E7C4
:10127000226801461046F0E770B51E4C2078010642
:1012800012D41D4D410610D540F08000207004217D
:10129000284600F05DFB60802868016A21F0A0010B
:1012A00001622868016A016270BD002161804020EE
:1012B00020702868026A41F211131A4207D1026AAB
:1012C0009B101A4203D1026822F0010202602868D2
:1012D00041622868016A21F0A00101622868016A60
:1012E00041F0200101622868016841F001010160BC
:1012F00070BD00002C0000200C0100202DE9F04101
:10130000054690F83C0000260C46012810D001202C
:1013100085F83C0072B1042A1CD0082A2CD00C2A73
:1013200050D00126002085F83C003046BDE8F08111
:101330000220FBE7D4E90012E368286801F044FDCD
:101340002868816921F00C01816128688169A2689F
:1013500011430FE0D4E90012E368286801F07CFD36
:101360002868816921F44061816128688169A268E7
:1013700041EA02218161D5E72868D4E9002C277B66
:10138000036A016A21F480710162C16923F4007368
:1013900021F0030141EA0C0121F0F00C39074FF470
:1013A00000774CEA116107EA02221A43C161026226
:1013B0002868C16921F00C01C1612868C169A2686F
:1013C00011432BE02868D4E90021E768036AD0F8CC
:1013D00020C02CF4805CC0F820C0D0F81CC023F4DE
:1013E00000532CF4407C4CEA012121F4704C4FF660
:1013F000FF7101EA07314FF4005741EA0C0107EA97
:1014000002321A43C16102622868C16921F4406155
:10141000C1612868C169A26841EA0221C16181E70E
:1014200010B5040003D094F83D0010B107E001208E
:1014300010BD002084F83C00204600F01FF8022078
:1014400084F83D00211D206801F084FB012084F810
:10145000460084F83E0084F83F0084F8400084F899
:10146000410084F8420084F8430084F8440084F882
:10147000450084F83D00002010BD000000B585B097
:101480000021009101910291039100681649884260
:1014900027D11648C16941F00201C161C16901F05B
:1014A00002010491816941F0080181618069694606
:1014B00000F008000490202000900D48FFF74AF942
:1014C0000C48416821F4406141F0E06141F4006161
:1014D0004160002211461D20FFF7A4FA1D20FFF7EE
:1014E00093FA05B000BD0000000400400010024067
:1014F000000C01400000014030B50446002551B108
:1015000004290DD0082910D094F8412094F8450002
:10151000012A11D10EE094F83E2094F84200F7E73A
:1015200094F83F2094F84300F2E794F8402094F8B0
:101530004400EDE7012801D0012030BD022059B15F
:10154000042912D0082919D084F8410084F84500F4
:101550000C293ED001253AE084F83E0084F8420090
:101560002068C26842F0020210E084F83F0084F86C
:1015700043002068C26842F0040207E084F840009B
:1015800084F844002068C26842F00802C260012268
:10159000206801F025FB1149206888420ED01049CF
:1015A00088420BD0B0F1804F08D00E49884205D058
:1015B0000D49884202D00D49884204D1816801F06A
:1015C0000701062903D0016841F0010101602846A6
:1015D00030BD2068C26842F01002D7E7002C0140FD
:1015E000003401400004004000080040000C0040AE
:1015F00070B50446006801694FF00005C9438907CA
:1016000015D4C168C943890711D4E91E01610120BD
:101610002077206880698007204602D0FFF72CFEE3
:1016200004E000F0D5F8204600F07AF9257720682C
:101630000169C943490717D4C168C943490713D48D
:101640006FF004010161022020772068806910F4A6
:10165000407F204602D0FFF70FFE04E000F0B8F80C
:10166000204600F05DF9257720680169C943090724
:1016700016D4C168C943090712D46FF0080101618B
:10168000042020772068C0698007204602D0FFF739
:10169000F3FD04E000F09CF8204600F041F92577C6
:1016A00020680169C943C90617D4C168C943C9067E
:1016B00013D46FF010010161082020772068C06901
:1016C00010F4407F204602D0FFF7D6FD04E000F082
:1016D0007FF8204600F024F9257720680169C94386
:1016E000C90708D1C168C943C90704D1891E01616E
:1016F000204600F017F920680169C943090609D49A
:10170000C168C943090605D46FF080010161204614
:10171000FFF766FC20680169C943490609D4C1681E
:10172000C943490605D46FF040010161204600F02D
:1017300024F920680169C94389060BD4C168C943EB
:10174000890607D46FF0200101612046BDE8704092
:10175000FFF747BC70BD000000B585B000210091C7
:10176000019102910391154B0268154802219A429A
:101770000ED1826942F0040282618069039100F017
:1017800004000490C801CDE9000169460D4811E04C
:101790000D4B9A4210D1826942F008028261806941
:1017A000039100F0080004904FF47070CDE900013F
:1017B00069460648FEF7CEFF05B000BD002C01408B
:1017C000001002400008014000080040000C0140E9
:1017D000704770B5044690F83C0000260D4601287D
:1017E0000FD0012084F83C006AB1042A1DD0082AD9
:1017F0002FD00C2A3FD00126002084F83C00304630
:1018000070BD022070BD206801F00AFA206881696D
:1018100041F0080181612068816921F00401816142
:10182000206881692A69114311E0206801F028FAD3
:101830002068816941F4006181612068816921F437
:1018400080618161206881692A6941EA02218161A0
:10185000D2E7206801F04AFA2068C16941F0080126
:10186000C1612068C16921F00401C1612068C169BA
:101870002A69114311E0206801F06CFA2068C169FF
:1018800041F40061C1612068C16921F48061C161D6
:101890002068C1692A6941EA0221C161ACE710B53B
:1018A000040003D094F83D0010B107E0012010BD02
:1018B000002084F83C00204600F01EF8022084F846
:1018C0003D00211D206801F045F9012084F8460003
:1018D00084F83E0084F83F0084F8400084F841001A
:1018E00084F8420084F8430084F8440084F84500FA
:1018F00084F83D00002010BD08B500680649884204
:1019000008D10648816941F400618161806900F471
:101910000060009008BD0000002C01400010024053
:101920007047000009490878020606D4420604D52B
:10193000C243920602D0401C0870704740F08000FD
:1019400008704FF6FF704880704700002C000020A0
:101950000246002041B1042909D008290AD00C29E7
:1019600001D11068006C70471068406B70471068B8
:10197000806B70471068C06B704770477047704746
:10198000F8B5016804460868CA684B6910F00F0F83
:101990004FF0000559D003F0010602F49077374369
:1019A00065D0C10705D0D10503D5616C41F00101B7
:1019B0006164410705D5D90703D0616C41F002018C
:1019C0006164810705D5D90703D0616C41F004013A
:1019D0006164010707D502F02001314303D0616C37
:1019E00041F008016164616C00293AD0800604D599
:1019F000900602D5204601F08AFA20684069616CA1
:101A0000C0F38010090700D460B3204601F058FAF3
:101A100020684069400621D52068143050E8001F36
:101A200021F0400140E80012002AF5D1E06BA8B196
:101A30006D494163E06BFEF7F5FD002811D0E06BC6
:101A4000416B01B0BDE8F040084783060FD593060F
:101A50000DD52046BDE8F84001F059BA2046FFF701
:101A60008EFFF8BD2046FFF78AFF6564F8BD266B40
:101A70002023012E7CD1C6067AD5D60678D50868F3
:101A80004868009048694FF00206400640D5E16B77
:101A9000086840680004000CE8D0A28D8242E5D9B5
:101AA000E085886920282DD020680C3050E8001F80
:101AB00021F4807140E80012002AF5D1206814302A
:101AC00050E8001F21F0010140E80012002AF5D182
:101AD0002068143050E8001F21F0400140E8001257
:101AE000002AF5D184F84230256320680C3050E894
:101AF000001F21F0100140E80012002AF5D1E06B30
:101B0000FEF76CFD6663A08DE18D401A81B22AE07C
:101B1000A08DE18D401A81B2E08D0028A6D0002969
:101B2000A4D022680C3252E8000F20F4907042E8F2
:101B30000007002FF5D12068143050E8002F22F064
:101B4000010240E80027002FF5D184F842302563D8
:101B500020680C3050E8002F22F0100240E80023EB
:101B6000002BF5D166632046FFF708FFF8BDFFE7BD
:101B700005062BD5150629D594F841002128F5D165
:101B8000A068B0F5805F01D12069B0B1206A411C26
:101B90002162216800784860E08C401E0004000C3F
:101BA000E084E3D12068C16821F08001C160206831
:101BB000C16841F04001C160D8E7206A0088C0F3E5
:101BC00008004860206A801C2062E5E74006CDD509
:101BD0005006CBD5CA68204622F04002CA6084F87D
:101BE000413000F0F0F9C1E7B12E000870B50400F3
:101BF00004D094F84100002510B106E0012070BD2A
:101C000084F84050204600F023F8242084F8410056
:101C10002068C16821F40051C160204601F0D8F964
:101C20002068016921F4904101612068416921F037
:101C30002A0141612068C16841F40051C1606564B6
:101C4000202084F8410084F842006563002070BDC4
:101C50002DE9F04F89B000250595069507950646B4
:101C60000495009501950295039500684849494CF3
:101C700002274FF003094FF48068884229D1A069F8
:101C800040F48040A061A06900F480400890A06901
:101C900040F00400A061A069DFF8FCA000F004009F
:101CA00008904815CDE9040704A9CDF81C905046CA
:101CB000FEF750FDCDE9048504A950460695FEF7D0
:101CC00049FD002211462520FEF7ACFE2520FEF737
:101CD0009BFE324930684FF4006A884228D1E0699F
:101CE00040F48020E061E06900F480200890A06961
:101CF00040F00800A061A069DFF8A4B000F008007F
:101D0000CDF80C90CDE90087089069465846FEF75B
:101D100021FDCDE900A5694658460295FEF71AFD5A
:101D2000002211462720FEF77DFE2720FEF76CFEDD
:101D30001C493068884227D1E06940F40020E06106
:101D4000E06900F400200890A06940F01000A06154
:101D5000A069154C00F01000CDF80C90CDE900877B
:101D6000089069462046FEF7F5FCCDE900A56946D6
:101D700020460295FEF7EEFC002211463420FEF7C5
:101D800051FE3420FEF740FE09B0BDE8F08F0000A0
:101D900000380140001002400008014000480040A7
:101DA000000C0140004C00400010014090F842300F
:101DB000202B01D00220704721B11AB10023036308
:101DC00001F062B9012070472DE9F047074600682D
:101DD0004849494C884208D1201D01220078211D24
:101DE0003038A0614548FFF7E1FF454938680025D4
:101DF0004FF0010888423FD13F4E42F210793078CF
:101E000031280AD1C4F80C80C4E904853B484B460C
:101E100005223CA1483000F089F8307832280AD1F8
:101E20000220E060C4E9040534484B46052237A18E
:101E3000483000F07BF8307833280AD10320E06086
:101E4000C4E904052D484B46052232A1483000F074
:101E50006DF83078302809D1E560284825614B4677
:101E600005222EA14830656100F060F82348012268
:101E700021494830FFF79AFF2A493868884237D10C
:101E80001D48801C0178242900D1A5601B48A66844
:101E9000C8388155761CA6600278242A07D10279B9
:101EA0004D2A04D14079432801D10A290CD0C82EEB
:101EB00001D3C820A060BDE8F0470F490F480122B8
:101EC000891C9030FFF772BF50211748FEF7E3F9E5
:101ED0000A493246C8391448FEF798F912490748AA
:101EE00081F85080C821C838A560FEF7F6F9E2E70E
:101EF000BDE8F08700380140300000206402002077
:101F00000048004031610D0A0000000032610D0AF6
:101F10000000000033610D0A0000000030610D0A6E
:101F200000000000004C00403C0300202DE9F84375
:101F3000044690F841001F4616460D46202802D060
:101F40000220BDE8F8837DB176B1002060642120D5
:101F500084F84100FEF7FAFCA6848046E684A06877
:101F6000B0F5805F02D003E00120EAE7206910B1FC
:101F70002E4600250EE000260CE08021204601F0D0
:101F80009EF8A0B9AEB116F8010B21684860E08C4C
:101F9000401EE084E08C43464FF00002009700288A
:101FA000EBD14FF04001204601F089F830B1032019
:101FB000C7E735F8020BC0F30800E6E7202084F8F5
:101FC00041000020BDE77047FEE700001FB54FF459
:101FD0008050009003200390002001906946024841
:101FE000FEF7B8FB1FBD0000000C01401FB54FF409
:101FF0008050009003200390012001906946024820
:10200000FEF7A8FB1FBD0000000C014070B515468F
:102010000E46044600F06EF8682000F045F800F027
:1020200099F8012817D0E0B200F03EF800F092F8DD
:10203000012810D0002408E0305D00F035F800F0F1
:1020400089F8012807D0641CE4B2AC42F4DB00F04C
:1020500069F8002070BD00F065F8012070BD000037
:102060000E4810B5816986B041F008018161806930
:10207000012400F00800049041F20200CDE90004C0
:102080000320039069460648FEF764FB0548C0F844
:10209000B041C0F8844106B010BD000000100240FD
:1020A000000C0140008021422DE9F0410646002548
:1020B000FFF79CFF0E4C0027C4F884714FF0010815
:1020C000F009C4F8B0017006060E0220FEF7DEF932
:1020D000C4F884810220FEF7D9F9C4F88471022083
:1020E000FEF7D4F96D1CEDB2082DE9D3BDE8F081FF
:1020F0000080214270B5FFF779FF094C0120C4F838
:10210000B001C4F88401052004F5C274FEF7BEF9DD
:102110000025E5620520FEF7B9F9256070BD0000D5
:102120000080214210B5FFF761FF094C0020C4F880
:102130008401C4F8B001052004F5C274FEF7A6F9C5
:1021400001202060E062BDE810400520FEF79EB946
:102150000080214270B50024FFF738FF0D4D0126A5
:10216000C5F8B0613046FEF791F9C5F884610120E9
:10217000FEF78CF907E0641CE4B2FA2C03D9FFF7F0
:10218000D1FF012070BDD5F830010028F3D1C5F88A
:10219000840170BD00802142034908B1080601E0B6
:1021A0004FF48050086070471014014070B51C4611
:1021B000154600F05BF9044905FB04F04989BDE8C8
:1021C000704000F097B800001C00002001B5009896
:1021D00001E0401E00900028FBD108BDF0B5184E6C
:1021E000203A1FFA82FCF568AA88EB882D6802FB6A
:1021F00003F7FC1707EB5474C4F3C7040CFB045536
:1022000000F034F92C20C10608800021728933893E
:102210000C4E802710E0002015F801C027FA00FEC0
:102220001CEA0E0F01D0338000E03280401CC0B2A7
:102230000828F1D3491CC9B2A142ECD3F0BD00007B
:102240001C00002000000260F0B50F460646002585
:102250000F4C19E0E068638881882944994203D9CA
:10226000C188002531448EB2C088A188304488429C
:1022700001D900252E4631462846FFF7AFFFE0681A
:102280007F1C8088284485B23A78002AE2D1F0BDCC
:102290001C00002010B515484FF0204100F1440209
:1022A000016013494160002108231160C2E9011354
:1022B000D1605C061161C2E905148160C0E90313B5
:1022C0001022C0E905211202C161C0E90912C162F0
:1022D00001634163816300F01BF8044ABDE81040CC
:1022E000443211460148FEF73BBE00006400002066
:1022F000040100A010B500222C23DC062380034B30
:1023000001E01980521C8242FBD310BD0000026024
:1023100070B5274886B0816941F0200181618169EB
:1023200001F020010491816941F0400181618169DE
:1023300001F040010491816941F08001816181696E
:1023400001F080010491816941F4807181618169AA
:1023500001F480710491416941F4807141614069E7
:10236000144D00F48070049001200190029003202D
:1023700003904FF48050009069462846FEF7EAF932
:102380000D4E0224694630460094FEF7E3F94CF600
:10239000B370CDE9000469462846FEF7DBF94FF635
:1023A0008070009069463046FEF7D4F906B070BDE3
:1023B00000100240001401400018014030B5072809
:1023C0003AD81E49C4074FF0F00208704FF4A073CA
:1023D00013D04B808A80362213071A80CC88184A83
:1023E000A4F51345413D04D0A4F50545523D07D061
:1023F00008E0082444EA401003E04A808B80EAE7C2
:10240000400110802A201880002010801080488809
:10241000401EC0F307241480C0B210802B20188007
:102420000020108010808888401EC0F30721118092
:10243000C0B210802C20188030BD00001C0000208D
:102440000000026010B5FFF763FFFFF723FF0120D4
:10245000FFF7A2FE00F0BEF900F028F8024800786D
:10246000BDE81040FFF7AABF1C00002070B54FF078
:10247000C0452A242C800C4C060A2680C6B2268031
:102480001044401E020A2280C0B220802B202880E7
:10249000080A2080C8B22080C818401E010A218086
:1024A000C0B2208070BD00000000026010B500F0D6
:1024B0006DF9B349B44AA0F51343C880B1494FF050
:1024C000C044413B7ED0A0F50543523B7BD1CF2099
:1024D000208000200880C120088030200880ED2066
:1024E000208064200880032008801220088081203A
:1024F0000880E8202080852008801020088078202F
:102500000880CB202080392008802C2008800020E3
:1025100008803420088002200880F72020802020B6
:102520000880EA202080002008800880C0202080C9
:1025300021200880C120208011200880C520208013
:102540002D2008803320088036202080002008803D
:102550003A20208055200880B1202080002008806B
:1025600017200880B62020800A200880A22008803A
:10257000F62020800120088030200880F220208072
:10258000002008802620208001200880E020208074
:10259000D0200880002008800220088007200880C2
:1025A0000B2008801A2008803120088054200880E1
:1025B0004020088029200880122008800880088098
:1025C000172001E029E027E00880E1202080D020CA
:1025D000088000200880022008800720088005204D
:1025E0000880252008802D20088044200880452070
:1025F00008801C20088018200880162008801C20D5
:1026000008801D200880112020801046FFF7DEFD85
:10261000292020802C20208010BDCF202080002069
:1026200008808120088030200880ED2020806420F0
:102630000880032008801220088081200880E8207C
:102640002080852008801020088078200880CB20FA
:102650002080392008802C20088000200880342029
:10266000088006200880F720208020200880EA20AB
:102670002080002008800880B12020800020088071
:102680001B200880B62020800A200880A220088015
:10269000C020208035200880C120208011200880A3
:1026A000C5202080452008800880C7202080A220E7
:1026B0000880F22020800020088026202080012031
:1026C0000880E02020800F20088026200880242019
:1026D00008800B2008800E200880092008805420E4
:1026E0000880A8200880462008800C200880172039
:1026F0000880092008800F2008800720088000201B
:102700000880E120208000200880192008801B20FC
:1027100008800420088010200880072008802A20D4
:102720000880472008803920088003200880062080
:102730000880088030200880382008800F2008801A
:1027400036202080C82008802A2020800020088091
:1027500008800880EF2008802B202080002008803F
:102760000880012008803F2008803A2020805520E2
:102770000880112020801046FFF728FD29204AE715
:102780001C00002000000260FCBF020010B54FF0EA
:10279000C043042018800E490888088808884FF62E
:1027A000FF7202EA002408882043A0F50544523C49
:1027B0000DD0D320188008880888088802EA0022F3
:1027C00008881043A0F51341413900D0002010BD06
:1027D0000000026070B5084C4FF40030206040F6F5
:1027E000FF252846FFF7F2FC022020602846BDE8BE
:1027F0007040FFF7EBBC0000101801400148C068B2
:10280000704700001C000020014A10815181704770
:102810001C0000200149C860704700001C00002017
:102820000D4808B5816941F004018161816901F0B9
:1028300004010091816941F008018161816901F021
:1028400008010091816941F010018161806900F007
:102850001000009008BD00000010024010B592B0BA
:1028600000240F941C2108A81094FDF736FD2021A8
:102870006846FDF732FD20481E4901604721C0E946
:10288000011444F61F61C0E9031444618461FFF739
:1028900006F808B1FDF70BFE0F940FA91648109427
:1028A000FEF7CAFB08B1FDF702FE6020CDE908047F
:1028B0000A940B940C940D94002208A90E480E94CF
:1028C000FEF787FF08B1FDF7F2FD00944FF40050CA
:1028D000CDE90440029401940394694606480794A4
:1028E000FEF780FB08B1FDF7E2FD0348FEF734FF79
:1028F00012B010BD002C0140C400002010B586B0FD
:1029000000241848059404940094019402941449F6
:10291000039401604721C0E901144FF6FF71C0E93B
:1029200003148461FEF77CFD08B1FDF7C0FD04943B
:1029300004A90C480594FEF77FFB08B1FDF7B7FD2D
:102940000120CDE900400294042269460548039421
:10295000FEF7D4FC002801D0FDF7A9FD06B010BD9C
:10296000000400400C01002010B58EB00024079434
:10297000089409940A940B941C2168460C94FDF762
:10298000ACFC2A48284901602321C0E901146321D5
:10299000C0E903148461FEF78DFB08B1FDF787FDE4
:1029A0004FF48050079007A92048FEF7F7FB08B1C5
:1029B000FDF77DFD1D48FEF772FF08B1FDF777FDBD
:1029C0000B940BA919480C94FEF736FB08B1FDF7E0
:1029D0006EFD6020CDE90004029400226946134890
:1029E0000494FEF7F6FE08B1FDF761FD0422694686
:1029F0000E48FEF7EEFE08B1FDF759FD08226946C4
:102A00000A48FEF7E6FE08B1FDF751FD0C226946C3
:102A10000648FEF7DEFE08B1FDF749FD0348FEF764
:102A20009BFE0EB010BD00000008004054010020C5
:102A30000C4810B50A4901604FF4E13141600021B2
:102A400081600C22C160C0E904128161C161FFF79D
:102A5000CDF8002803D0BDE81040FDF728BD10BD1B
:102A600000380140640200200C4810B50A4901609A
:102A70004FF4E1314160002181600C22C160C0E966
:102A800004128161C161FFF7B1F8002803D0BDE8ED
:102A90001040FDF70CBD10BD00480040AC02002006
:102AA0000C4810B50A4901604FF4165141600021ED
:102AB00081600C22C160C0E904128161C161FFF72D
:102AC00095F8002803D0BDE81040FDF7F0BC10BD1C
:102AD000004C0040F4020020FEE7FEE7704770471C
:102AE0007047FDF739BF30B58FB028216846FDF734
:102AF000F4FB14210AA8FDF7F0FB01210804CDE93D
:102B000000100024029402250491CDE907504FF4EF
:102B1000E01009906846FEF793F808B172B6FEE738
:102B20000F20CDE90A054FF48060CDE90C40022169
:102B30000AA80E94FDF7A8FF002801D072B6FEE7A0
:102B40000FB030BD704700000148FEF751BD0000D6
:102B50000C010020F0B502681C4B1D4D1D4E1E4F90
:102B60001E4C4FF0804C984209D0A04207D06045DF
:102B700005D0A84203D0B04201D0B84204D122F01F
:102B8000700E4A6842EA0E02984209D0A04207D06D
:102B9000604505D0A84203D0B04201D0B84203D16D
:102BA00022F44075CA682A434D6922F080022A4304
:102BB00002608A68C2620A688262984201D0A042BA
:102BC00001D10969016301214161F0BD002C01407F
:102BD0000004004000080040000C004000340140A8
:102BE00010B501F01F030121046A99408C4304626F
:102BF000016A9A401143016210BD10B5846842EA2F
:102C0000032224F47F440A432243826010BD826879
:102C100022F070020A4342F0070181607047000011
:102C2000F0B5036A026A22F0010202624268846916
:102C3000124E24F073050C682C4323F002058B68B8
:102C40002B430D4DA84201D0B04205D123F0080717
:102C5000CB683B4323F00403A84201D0B04205D126
:102C60004D6922F4407215438A692A4342608461A7
:102C7000496841630362F0BD002C0140003401400B
:102C8000F0B5026A036A23F01003036243688469A3
:102C90000D6824F4E64444EA05248D6822F02002FD
:102CA00042EA05120F4D104EA84201D0B04206D1A3
:102CB000CF6822F0800242EA071222F04002A842C6
:102CC00001D0B04207D14D6923F4406343EA850344
:102CD0008D6943EA850343608461496881630262C8
:102CE000F0BD0000002C014000340140F0B5026A44
:102CF000036A23F4807303624368C46922F4007298
:102D000024F073050C68124E2C438D6842EA0522AC
:102D10000E4DA84201D0B04206D1CF6822F4006225
:102D200042EA072222F48062A84201D0B04207D1D1
:102D30004D6923F4405343EA05138D6943EA0513B3
:102D40004360C4614968C1630262F0BD002C014068
:102D50000034014030B5046A026A22F480520262F3
:102D60004268C3690D6823F4E64343EA05238D688E
:102D700024F4005444EA0534084DA84202D0084D1A
:102D8000A84204D14D6922F4804242EA8512426091
:102D9000C36149680164046230BD0000002C014039
:102DA0000034014010B5036A046A24F0010404628F
:102DB000846924F0F00444EA021423F00A020A436E
:102DC0008461026210BD000070B5056A046A24F0D7
:102DD000010404628469124EB0420ED0114EB0421A
:102DE0000BD0B0F1804F08D00F4EB04205D00F4E3F
:102DF000B04202D00E4EB04203D124F0030414437B
:102E000001E044F001041A0724F0F00444EA1262DD
:102E100025F00A0301F00A0119438261016270BDC5
:102E2000002C014000340140000400400008004034
:102E3000000C004010B5036A046A24F01004046218
:102E4000846923F0A00324F4704444EA023243EA84
:102E500001118261016210BD30B5046A056A25F076
:102E600010050562856925F4407545EA022222F4C1
:102E700070454FF6FF7202EA033224F0A0032A43A2
:102E8000A02404EA011119438261016230BD0000EF
:102E9000042202493320FFF7B9B8000010000020D7
:102EA000042202493320FFF7B1B800000C000020D3
:102EB00010B5406A0021C185C184FEF760FD10BDD8
:102EC00001680C3151E8002F22F4907241E8002390
:102ED000002BF5D10168143151E8002F22F00102D6
:102EE00041E80023002BF5D1016B012909D10168CC
:102EF0000C3151E8002F22F0100241E80023002B92
:102F0000F5D1202180F8421000210163704708B5F7
:102F100090F84210222901D0022008BD82684FF4A7
:102F200080539A4201D1016921B1816A9A421BD032
:102F30004AB10AE00268816A5268C2F308020A8054
:102F4000816A891C08E0026972B10268526802F065
:102F50007F020A70816A491C8162C18D491E090481
:102F6000090CC18503D01BE002685268F1E70168D3
:102F7000CA6822F02002CA600168CA6822F480721E
:102F8000CA6001684A6922F001024A61202180F882
:102F9000421000214163026B012A03D0FEF714FFA7
:102FA000002008BD016301680C3151E8002F22F0B8
:102FB000100241E80023002BF5D101680A68D2060F
:102FC00002D50A6849680091818DFEF7D7FCE7E7D2
:102FD00070B5044600680169E26821F4405111436C
:102FE00001612169A0680843616908432168CA68D2
:102FF00041F20C639A430243CA6020684169A269A6
:1030000021F44071114341611E492068884202D178
:10301000FDF7E0FD01E0FDF7CDFD00EBC00101EBA8
:103020000012606864218000B2FBF0F3B3FBF1F39F
:103030006FF018067343B2FBF0F5B2FBF0F605EB48
:103040008305322303EB0515B5FBF1F5B6FBF1F66D
:1030500005F0F00505EB0615B2FBF0F6B2FBF0F05B
:10306000B0FBF1F06FF01802504306EB800003EB69
:103070000010B0FBF1F0216800F00F0028448860D8
:1030800070BD00000038014081628285C285002148
:103090004164222180F84210016921B10168CA68A7
:1030A00042F48072CA6001684A6942F001024A61D2
:1030B0000068C16841F02001C160002070472DE91F
:1030C000F041984617460E460446069D27E0681CC8
:1030D00025D02DB1FDF73AFCA0EB0800A8421ED97F
:1030E00020680C3050E8001F21F4D07140E8001235
:1030F000002AF5D12068143050E8001F21F00101AA
:1031000040E80012002AF5D1202084F8410084F81C
:103110004200002084F840000320BDE8F0812068D0
:10312000006836EA000004D00020B842CFD000206A
:10313000F3E70120F9E700000148FEF721BC000099
:10314000640200200148FEF71BBC0000AC02002016
:10315000FEE70907090E002804DB00F1E02080F8F3
:103160000014704700F00F0000F1E02080F8141DFB
:103170007047000086B0FDF7F7FBFFF7B4FCFFF7E0
:103180004FFBFFF771FCFFF78BFCFFF7EDFBFFF741
:1031900065FBFFF7B3FBFEF763FF9C48FDF7CCFF31
:1031A00004219A48FEF7A8F998480068C16841F0E0
:1031B0000101C16001208DF8040003208DF8080092
:1031C000142000F055F9042202A91420FEF71EFF76
:1031D000052000F04DF9012201A91520FEF716FF88
:1031E000052000F045F9FFF72DF90620FFF7E6F876
:1031F0008748FFF70FFB1F21C802FFF705FB854833
:1032000000210388844802880846FEF7CFFFFFF7B5
:1032100067FC012281498248FEF7C8FDFFF708FCE0
:10322000012280498048FEF7C1FD01227F49804884
:10323000FEF7BCFD7F4D804C804E814F42F21079ED
:1032400040F6C41A4FF4C87B4FF0000828680128E4
:1032500031D0022872D0032805D00028F6D120688A
:1032600000287DD0CCE020680028FBD175A0042286
:103270000068009069463320FEF7C8FE4B460522E1
:1032800071A16748FEF752FE4FF4E160FDF7F3F8D5
:103290004B4605226EA16248CDF80C80FEF746FE33
:1032A000042203A93320FEF7B1FE2068401C2060F1
:1032B000286801283FD120680028D3D166A00422C5
:1032C0000068039065A004A9006804903320FEF70D
:1032D0009DFE4B46052262A15148FEF727FE50464F
:1032E000FDF7C9F8042269463320CDF80080FEF7C7
:1032F0008DFE4B46052256A14948FEF717FE0422D3
:1033000003A93320FEF782FE4B46052256A144480E
:10331000FEF70CFE5846FDF7AEF80422694633204E
:10332000FEF774FE4B46052249A13D48FEF7FEFD1F
:103330002068401C20602868022861D1206800288D
:103340005ED140A004220068039044A004A9006854
:1033500004903320FEF75AFE4B46052240A100E0C0
:103360002EE02F48FEF7E2FD5046FDF784F80422D8
:1033700069463320CDF80080FEF748FE4B46052213
:1033800033A12748FEF7D2FD042203A93320FEF71C
:103390003DFE4B4605222CA12148FEF7C7FD5846AD
:1033A000FDF769F8042269463320FEF72FFE4B46ED
:1033B000052227A11A48FEF7B9FD2068401C1EE02F
:1033C00025A004220068009024A069460068CDE989
:1033D00003083320FEF71AFE40F64850FDF74BF87D
:1033E000042204A93320FEF711FE042203A933208E
:1033F000FEF70CFE40F2DC50FDF73DF802202060A5
:103400003168386800F046F820E700000C01002021
:1034100014000020200000201E00002030000020AA
:10342000AC020020340000206402002032000020A2
:10343000F402002040000020440000205000002042
:103440004C0000200AF60AF632620D0A0000000065
:1034500030620D0A00000000F60AF60AEC1414ECC3
:1034600031620D0A0000000033620D0A0000000006
:1034700042F2283148434FF0E02148610020886142
:1034800001220A610A69D30701D0D203FAD5086183
:103490008861704770B5294C2068411C4CD04FF0B2
:1034A000FF354FF4FA76012816D0022824D00328DD
:1034B00032D0002840D1FFF7A1F9C08820A100EB4D
:1034C000C00080B2FEF7C0FE2560BDE87040042257
:1034D0001D493320FEF79ABD2560FFF78FF9C0889C
:1034E0001AA100EBC00080B2FEF7AEFE3146BDE887
:1034F00070400120FCF79ABFFFF780F9C08815A142
:1035000000EBC00080B2FEF79FFE31462560BDE8AB
:1035100070400120FCF79CBFFFF770F9C0880FA135
:1035200000EBC00080B2FEF78FFE31462560BDE89B
:1035300070400120FCF768BF70BD0000480000200B
:1035400073746F7000000000000000206C656674EA
:10355000000000007269676800000000666F770075
:10356000000000000000000000000000000000005B
:103570000000001818181818180800081800000093
:10358000000000342424240000000000000000009B
:103590000000000016247F2424247E242400000040
:1035A000000000083E6848681C1612127C101000CB
:1035B00000000061D296740810162949C600000068
:1035C000000000003C646438724ACE467F00000070
:1035D000000000181818180000000000000000008B
:1035E00000000004081810303030301010180C049F
:1035F000000000201008080C0404040C0818102017
:10360000000000080A341C6A0800000000000000E6
:103610000000000000001818187F1818180000009B
:103620000000000000000000000000181808300032
:103630000000000000000000003C0000000000004E
:10364000000000000000000000000018180000004A
:103650000000000206040C080810102020400000A2
:10366000000000003C6642475B7342663C0000007D
:103670000000000018784808080808087E000000CC
:10368000000000003C460606040810207E000000F2
:10369000000000007C0606043C0202067C000000DC
:1036A000000000000C1C14246444FF04040000000B
:1036B000000000007E6060607E0202067C00000068
:1036C000000000001E306048764242623C0000006C
:1036D000000000007E0206040C08181030000000F4
:1036E000000000003C6242361C6642423C00000082
:1036F000000000003C664242661A020478000000A6
:103700000000000000001818000000181800000059
:103710000000000000001818000000181808300011
:1037200000000000000004183060100C06000000CB
:1037300000000000000000007E007E00000000008D
:10374000000000000000301804060C1020000000EB
:10375000000000301C0606061810001010000000C3
:103760000000001C224141DDB5A5A5AF94C0403C3E
:1037700000000000181C342426627E43C1000000B3
:10378000000000007C4642467C4242427C00000031
:10379000000000001E204040404040603E0000000D
:1037A000000000007C46424343434246780000004C
:1037B000000000007E6060607E6060607E0000004F
:1037C000000000007E6060607E606060600000005D
:1037D000000000001E604040CE4242623E000000F9
:1037E00000000000424242427E424242420000004B
:1037F000000000007E181818181818187E00000025
:10380000000000007C040404040404447800000068
:10381000000000004244485070584C4442000000F0
:103820000000000020202020202020203E0000005A
:10383000000000006266675F5B5BC1C1C100000001
:1038400000000000626272525A4A4E464600000072
:10385000000000003C6243C3C3C343623C0000005D
:10386000000000007C464242467840404000000094
:10387000000000003C6243C3C3C343623C180F0016
:10388000000000007C6662667C6C6466620000007A
:10389000000000003E6040601C0602027C00000048
:1038A000000000007F1818181818181818000000D9
:1038B0000000000042424242424242623C0000009C
:1038C00000000000C14342622624341C180000009E
:1038D00000000000C1C141495B5B766666000000E4
:1038E0000000000043663418181C2466C300000062
:1038F00000000000C14266341C18181818000000AF
:10390000000000007E02040C181020607E00000001
:103910000000001C10101010101010101010101CBF
:10392000000000402020101008080C0406020000CF
:103930000000003C0C0C0C0C0C0C0C0C0C0C0C3C8B
:1039400000000000181C24620000000000000000BD
:10395000000000000000000000000000000000FF68
:103960000000002010000000000000000000000027
:103970000000000000003C06023E42467A000000C3
:103980000000004040405C62424242427C00000035
:103990000000000000001E20604060203E0000008B
:1039A0000000000202023E62424242663A0000000B
:1039B0000000000000003C62427E40603E000000CB
:1039C0000000000F1810107E1010101010000000E2
:1039D0000000000000003F66426658403E43423C03
:1039E0000000004040405C6242424242420000000F
:1039F0000000001818007808080808087E00000079
:103A0000000000040C007C040404040404040C788A
:103A1000000000606060626C7870686462000000A2
:103A20000000007808080808080808087E00000060
:103A3000000000000000764B4B4B4B4B4B0000004E
:103A40000000000000005C6242424242420000006E
:103A50000000000000003C62424342623C00000063
:103A60000000000000005C62424242427C40404054
:103A70000000000000003E62424242663A0202023A
:103A80000000000000006E72636060606000000073
:103A90000000000000003E20203C06027C000000E8
:103AA000000000001010FE10101010101E0000008A
:103AB0000000000000004242424242663A0000001C
:103AC0000000000000004342662434181800000083
:103AD000000000000000C1C15B5A5E666600000085
:103AE00000000000000062261C181C266200000076
:103AF00000000000000043426624341C181830E027
:103B00000000000000007E060C1810207E0000005F
:103B10000000000E18101010307010101010180E49
:103B20000000080808080808080808080808080825
:103B300000000030180808080C0E080808081830A3
:103B40000000000000000000714B060000000000B3
:103B5000010202030405060708090A0B0C0D0E0FEB
:103B6000101000000000000000000102030406071E
:103B70000809000000000102030400009C3B00084B
:103B800000000020640000006C010008003C0008F8
:103B900064000020B4090000880100080000000053
:103BA000EC1414EC0FF1F10F0FF10FF1F10FF10F15
:103BB00060350008080010000600F0004001000019
:103BC0000000FFFF140000200000000000000000C3
:103BD00000000000000000000400000004000000DD
:103BE00000000000FFFFFFFF0000000000000000D9
:103BF0000100000010000000000000000024F4009C
:0400000508000131BD
:00000001FF
